S01A000042617468726F6F6D436F6E74726F6C6C65722E73726563AA
S11300000C943D050C945A050C945A050C94D80E86
S11300100C94B40E0C94900E0C945A050C945A053E
S11300200C945A050C945A050C945A050C94FC0E25
S11300300C945A050C945A050C945A050C945A05C0
S11300400C945A050C945A050C9456100C94811077
S11300500C945A050C945A050C945A050C945A05A0
S11300600C945A050C945A05870F890F900F920F20
S1130070940F960F980F9A0F57656C636F6D6520F8
S1130080746F2042617468726F6F6D20436F6E7479
S1130090726F6C6C6572204D43552C20636F6D6DCF
S11300A0616E6473203A200A2048454C5020202079
S11300B0202020202020202020202020202020203C
S11300C020203A2048656C702067756964652C208F
S11300D0776869636820796F75206172652072653D
S11300E06164696E67206E6F770A205645525349E2
S11300F04F4E20202020202020202020202020209F
S1130100202020203A2076657273696F6E206F6616
S11301102074686520736F6674776172650A205471
S113012020202020202020202020202020202020CB
S113013020202020202020203A2063757272656ED2
S1130140742074656D70657261747572650A2048F7
S1130150202020202020202020202020202020209B
S113016020202020202020203A2063757272656EA2
S1130170742068756D69646974790A20555054490E
S11301804D45202020202020202020202020202019
S113019020202020203A206461797320616E64203D
S11301A0686F757273206F6620776F726B696E6704
S11301B02074696D652073696E6365206C61737466
S11301C02073746172740A2052455354415254206E
S11301D06F72205245534554202020202020202097
S11301E0203A20636F6D6D616E6420746F207265B8
S11301F07374617274204D4355200A20424F4F544A
S11302004C4F4144455220202020202020202020F3
S113021020202020203A2072756E20626F6F746C4B
S11302206F6164657220746F2075706772616465B4
S113023020736F667477617265200A2054455354A5
S113024020202020202020202020202020202020AA
S113025020202020203A207465737420636F6E740C
S1130260726F6C6C6572200A20504152414D5320CC
S1130270202020202020202020202020202020207A
S113028020203A207072696E7420706172616D650D
S113029074657273200A20482D56454E542D4F4ED6
S11302A03D38302020202020202020202020202005
S11302B03A207365742068756D6964697479207770
S11302C068656E2076656E74696C6174696F6E2002
S11302D0697320737461727465642C20383025202E
S11302E062792064656661756C742C206D61782078
S11302F0313030250A20482D56454E542D4F464660
S11303003D37352020202020202020202020203A86
S1130310207365742068756D6964697479207768E1
S1130320656E2076656E74696C6174696F6E2069A0
S1130330732073746F707065642C203735252062C8
S1130340792064656661756C740A2056454E542D97
S1130350454E41424C45443D312020202020202060
S1130360202020203A20656E61626C652076656EDF
S113037074696C6174696F6E2C20656E61626C6562
S11303806420312C2064697361626C6564203020C0
S11303902E44656661756C7420697320310A205699
S11303A0454E542D4D41582D54494D453D33302033
S11303B020202020202020203A2073657420766598
S11303C06E74696C6174696F6E206D6178207469F4
S11303D06D6520696E206D696E757465730A2056AB
S11303E0454E542D4D494E2D54494D453D32202006
S11303F020202020202020203A2073657420766558
S11304006E74696C6174696F6E206D696E207469B5
S11304106D6520696E206D696E757465730A20566A
S1130420454E542D4D494E2D54454D503D313820A7
S113043020202020202020203A20736574206D691C
S11304406E696D616C2074656D706572617475722E
S113045065207768656E2076656E74696C61746971
S11304606F6E2063616E20626520737461727465BF
S1130470640A2056454E542D41465445523D302081
S11304802020202020202020202020203A207275A7
S11304906E2076656E74696C6174696F6E206F6E20
S11304A06C792069662074686520726F6F6D2069AD
S11304B07320656D7074792E2031202D2079657339
S11304C02C2030202D206E6F0A20494E562D574186
S11304D049542D54494D453D3130202020202020C1
S11304E02020203A20736574207761697420746930
S11304F06D6520696E206D696E757465732077680B
S1130500656E20636F6E74726F6C6C6572206775B4
S1130510657373207468617420736F6D65626F64B2
S11305207920696E20776974686F757420616E79BB
S1130530207369676E616C2066726F6D2073656EDF
S1130540736F72730A20534F4D45424F44592D49DE
S11305504E2D574149542D54494D453D3430203A90
S11305602073657420776169742074696D652069EE
S11305706E206D696E75746573207768656E20737F
S11305806F6D65626F647920696E20616C7265615C
S1130590647920616E64206E6F20616E79207369C6
S11305A0676E616C2066726F6D2073656E736F7217
S11305B0730A204D555349432D454E41424C454401
S11305C03D31202020202020202020203A20656E4C
S11305D061626C65206D757369632C206465666166
S11305E0756C7420697320312028456E61626C65D6
S11305F06429200A204C494748542D4D41494E2D29
S1130600454E41424C45443D3120202020203A2093
S1130610656E61626C65207072696D617279206CBF
S1130620696768742C2064656661756C74206973ED
S113063020312028456E61626C656429200A204CB3
S1130640494748542D5345432D454E41424C45445A
S11306503D312020202020203A20656E61626C65A7
S1130660207365636F6E64617279206C6967687466
S11306702C2064656661756C7420697320312028B0
S1130680456E61626C656429200A204C49474854D0
S11306902D52454C41582D454E41424C45443D3127
S11306A0202020203A20656E61626C652072656CA2
S11306B06178206C696768742C2064656661756C68
S11306C07420697320312028456E61626C65642949
S11306D0200A205345542D484947482D50494E2D52
S11306E04C45563D35202020202020203A2073659B
S11306F0742048494748206C6F676963206C6576AD
S1130700656C20666F72206F7574707574207069E3
S11307106E2077697468206E756D626572203A2068
S1130720302D370A205345542D4C4F572D50494EE8
S11307302D4C45563D3320202020202020203A20D7
S11307407365742048494748206C6F676963206C5F
S11307506576656C20666F72206F75747075742091
S113076070696E2077697468206E756D6265722099
S11307703A20302D370A2050494E2D4C4556454CD1
S11307802020202020202020202020202020202065
S11307903A207072696E742070696E206C6F67699C
S11307A063206C6576656C20666F72206F7574705B
S11307B075742070696E730A204F55545055542D2A
S11307C05354415445202020202020202020202044
S11307D020203A207072696E74206F75747075747D
S11307E0207374617465730A205345542D50494E27
S11307F02D4F4E3D3220202020202020202020205C
S113080020203A207365742070696E20746F204F25
S11308104E207374617465207573696E6720697402
S11308207320696E6465780A205345542D50494EEF
S11308302D4F46463D3320202020202020202020FC
S113084020203A207365742070696E20746F204FE5
S11308504646207374617465207573696E672069F8
S1130860747320696E6465780A200A204F555450C9
S113087055542050494E533A204D61696E204C69BD
S113088067687420302C205365636F6E64617279DD
S1130890204C6967687420312C2056656E74696C2D
S11308A06174696F6E20322C204D75736963203337
S11308B00A202D2D2D2D2D2D2D2D2D2D2D2D2D2D94
S11308C02D2D2D2D2D2D2D2D2D2D2D2D2D2D2D2D54
S11308D02D2D2D2D2D2D2D2D2D2D2D2D2D2D2D2D44
S11308E02D2D2D2D2D2D2D2D2D2D2D2D2D2D2D2D34
S11308F02D2D2D2D2D2D2D2D2D2D2D2D2D2D2D2D24
S11309002D2D2D2D2D2D2D2D2D2D2D0A20004D7508
S113091073696320746573742E2E2E0A0056656EF7
S113092074696C6174696F6E20746573742E2E2EF5
S11309300A004D61696E20616E64207365636F6E99
S113094064617279206C6967687420746573742EAD
S11309502E2E0A005365636F6E64617279206C6990
S113096067687420746573742E2E2E0A004D6169B5
S11309706E206C6967687420746573742E2E2E0A59
S113098000456E642074657374696E670A0053745D
S11309906172742074657374696E670A005B5374C2
S11309A06174655D3A204F757470757420256420F8
S11309B073657420746F2025730A005B436F6D6D3B
S11309C0616E645D3A204C69676874204F4E0A007A
S11309D05B436F6D6D616E645D3A2052656C617846
S11309E0204D6F6465204465616374697661746544
S11309F0640A005B436F6D6D616E645D3A205265FD
S1130A006C6178204D6F646520416374697661740C
S1130A1065640A00557074696D653A202564206424
S1130A2061797320616E6420256420686F75727328
S1130A300A0054656D70657261747572653A20259B
S1130A40642E256420430A0048756D6964697479CD
S1130A503A2025642025250A0042617468726F6F6C
S1130A606D20636F6E74726F6C6C65722069732095
S1130A70737461727465640A000011241FBECFEFA1
S1130A80D8E0DEBFCDBF13E0A0E0B1E0E4E9F9E2D5
S1130A9002C005900D92A031B107D9F724E0A0E17E
S1130AA0B3E001C01D92AB33B207E1F70E942D0FF2
S1130AB00C94C8140C940000FA01DC018C9190E0B1
S1130AC002C0959587956A95E2F78170608170E020
S1130AD0022E02C0759567950A94E2F76170772734
S1130AE0482F082E000C550B64177507C1F0308190
S1130AF0882351F081E090E001C0880F2A95EAF73D
S1130B00832B808381E0089581E090E001C0880F09
S1130B102A95EAF780958323808380E008958FEFF8
S1130B200895609106010C9425100F931F93CF93A1
S1130B30DF93C82F162F042F409106010E94C20F85
S1130B40D82F0023C9F18823B9F11130C9F484E9FD
S1130B5092E09F938F931F92CF938DE999E09F9397
S1130B608F9386E793E09F938F930E94B4118DB780
S1130B709EB708960FB6F8949EBF0FBE8DBF18C0DF
S1130B808FE992E09F938F931F92CF938DE999E021
S1130B909F938F9386E793E09F938F930E94B41162
S1130BA08DB79EB708960FB6F8949EBF0FBE8DBF43
S1130BB086E793E00E94F4108D2FDF91CF911F916F
S1130BC00F9108958091020141E085FF09C060E022
S1130BD080E00E94950541E061E081E00C94950578
S1130BE061E080E00E94950580910401813021F448
S1130BF041E061E00E9495058BEB99E00C940011B3
S1130C000FB6F894A8958091600088618093600085
S1130C10109260000FBE8EE899E00E9400118DE6EC
S1130C2099E00E94001141E060E080E00E94950597
S1130C302FEF8EE994E2215080409040E1F700C00C
S1130C40000041E061E080E00E9495052FEF8EE90D
S1130C5094E2215080409040E1F700C0000041E060
S1130C6060E080E00E9495052FEF8EE994E2215028
S1130C7080409040E1F700C0000041E061E080E086
S1130C800E9495052FEF8EE994E221508040904018
S1130C90E1F700C0000041E060E080E00E949505BB
S1130CA084E599E00E94001141E060E081E00E9447
S1130CB095052FEF8EE994E2215080409040E1F7B2
S1130CC000C0000041E061E081E00E9495052FEF43
S1130CD08EE994E2215080409040E1F700C000008A
S1130CE041E060E081E00E9495052FEF8EE994E2F7
S1130CF0215080409040E1F700C0000041E061E0F5
S1130D0081E00E9495052FEF8EE994E22150804006
S1130D109040E1F700C0000041E060E081E00E9403
S1130D20950582E399E00E94001141E060E080E0D3
S1130D300E94950541E060E081E00E9495052FEF57
S1130D408EE994E2215080409040E1F700C0000019
S1130D5041E061E080E00E94950541E061E081E0CE
S1130D600E9495052FEF8EE994E221508040904037
S1130D70E1F700C0000041E060E080E00E949505DA
S1130D8041E060E081E00E9495052FEF8EE994E256
S1130D90215080409040E1F700C0000041E061E054
S1130DA080E00E94950541E061E081E00E949505A4
S1130DB02FEF8EE994E2215080409040E1F700C08B
S1130DC0000041E060E080E00E94950541E060E0C1
S1130DD081E00E9495058DE199E00E94001141E0B7
S1130DE060E082E00E9495052FEF8EE994E22150A5
S1130DF080409040E1F700C0000041E061E082E003
S1130E000E9495052FEF8AE197EB21508040904096
S1130E10E1F700C0000041E060E082E00E94950537
S1130E202FEF8AE197EB215080409040E1F700C01A
S1130E30000041E061E082E00E9495052FEF8AE125
S1130E4097EB215080409040E1F700C0000041E062
S1130E5060E082E00E9495058EE099E00E94001116
S1130E6041E060E083E00E9495052FEF8EE994E273
S1130E70215080409040E1F700C0000041E061E073
S1130E8083E00E9495052FEF8AE197EB2150804083
S1130E909040E1F700C0000041E060E083E00E9480
S1130EA095052FEF8AE197EB215080409040E1F7C0
S1130EB000C0000041E061E083E00E9495052FEF4F
S1130EC08AE197EB215080409040E1F700C0000098
S1130ED041E060E083E00E94950581E899E00E948A
S1130EE000119FE088E10FB6F894A8958093600004
S1130EF00FBE90936000089590917503913009F0AE
S1130F0050C090910401913009F04BC0813059F5E3
S1130F10339B1CC08091020185FF09C080910201AE
S1130F208F7D8093020180ED99E00E940011609111
S1130F30060180E00E942510811131C060910601F4
S1130F4081E00E94251081112AC0089580915803E0
S1130F50811103C084E180935703809158038F5F0C
S1130F6080935803089580915803823048F080910B
S1130F70020180628093020183EF99E00E940011D4
S1130F80109258036091060180E00E94251081119F
S1130F9006C06091060181E00E94251081110C9425
S1130FA0E20508950F93FC019081621710F0061773
S1130FB020F4442319F0408301C0608381E0208140
S1130FC0291301C080E00F91089590910601809348
S1130FD00601891739F0662329F0682F8DE090E027
S1130FE00C947F14089590915E032FEF280F2A3FED
S1130FF008F08AE080935E0380915E03981739F0CD
S1131000662329F0682F81E090E00C947F14089502
S113101090915D032FEF280F2A3F08F08AE0809318
S11310205D0380915D03981739F0662329F0682FDA
S113103080E090E00C947F140895909164038111F2
S113104001C08EE18093640380916403981739F0A2
S1131050662329F0682F85E090E00C947F140895AE
S113106090916303811101C082E0809363038091B6
S11310706303981739F0662329F0682F84E090E021
S11310800C947F140895909162038F3108F082E1EB
S11310908093620380916203981739F0662329F0E4
S11310A0682F83E090E00C947F140895909161037D
S11310B0823010F48093610380916103981739F0B2
S11310C0662329F0682F82E090E00C947F14089541
S11310D090916503823008F081E0809365038091EC
S11310E06503981739F0662329F0682F86E090E0AD
S11310F00C947F14089590916C032EEC280F2333E5
S113110008F080E580936C0380916C03981739F0A4
S1131110662329F0682F88E090E00C947F140895EA
S113112090916B032EEC280F233308F08BE480930B
S11311306B0380916B03981739F0662329F0682FAD
S113114087E090E00C947F1408959091030182301D
S113115008F081E08093030180910301981739F02E
S1131160662329F0682F89E090E00C947F14089599
S113117090910501823008F081E08093050180910F
S11311800501981739F0662329F0682F8CE090E068
S11311900C947F14089590910401823008F081E04A
S11311A08093040180910401981739F0662329F093
S11311B0682F8BE090E00C947F1408959091750350
S11311C0823010F48093750380917503981739F079
S11311D0662329F0682F8AE090E00C947F14089528
S11311E00F9388E090E00E94771404E622E340E540
S11311F0682F8CE693E00E94D20787E090E00E947B
S1131200771422E34BE4682F8BE693E00E94D20725
S1131210E6E6F3E014821082128211828FEF838358
S11312200F91089585E090E00E94771460E00E9499
S11312301D0884E090E00E94771460E00E9430086A
S113124083E090E00E94771460E00E94430882E00B
S113125090E00E94771460E00E94560886E090E0D7
S11312600E94771460E00C94680880E090E00E948B
S1131270771460E00E94080881E090E00E947714EF
S113128060E00C94F30789E090E00E94771460E03A
S11312900C94A5088CE090E00E94771460E00E9412
S11312A0B8088BE090E00E94771460E00E94CB08BD
S11312B08AE090E00E94771460E00C94DE08339B8F
S11312C005C0809102018460809302010895109208
S11312D012031092100380E4E3E1F3E0DF011D92B6
S11312E08A95E9F70895AF92BF92CF92DF92EF9279
S11312F0FF920F931F93CF93DF93CDB7DEB7C25402
S1131300D1090FB6F894DEBF0FBECDBF1BA21AA23F
S11313102FE1FE01B496DF01322F1D923A95E9F7D1
S11313201A821982B197DF011D922A95E9F7FC010F
S113133041E0F12C20E090E031913323A9F04134D5
S113134099F03D3321F4FF24F3944F5FF5CFF1106E
S113135033C39032D0F7A2E2B0E0AC0FBD1FA90FA7
S1131360B11D3C939F5FF1CF9E012F5F3F4F6901F9
S1131370F90101900020E9F731975F01A21AB30A3D
S11313808E010E5D1F4FB80187E091E00E94471166
S1131390892B29F488E790E00E94001144C3B80126
S11313A08CE091E00E944711892BE1F487E191E000
S11313B00E94F4108AE0A8953FEF4EE954E23150C0
S11313C040405040E1F700C000008150A1F798E090
S11313D088E10FB6F894A895809360000FBE9093AF
S11313E06000FFCFB80188E591E00E944711892B86
S11313F081F480916703909168036AE070E00E9431
S11314000F119F938F9377277F936F9382E39AE0D3
S113141048C0B80187E391E00E944711892BC9F4C1
S1131420809166031F928F9388E49AE09F938F9331
S113143086E793E09F938F930E94B41186E793E02D
S11314400E94F4100F900F900F900F900F900F9038
S1131450EAC2B80189E391E00E944711892B19F48B
S113146081E491E082C2B80185E491E00E944711D1
S1131470892B49F58091530390915403E0915303D0
S1131480F091540328E130E0B9010E940F119F93B9
S11314908F93CF01B9010E940F117F936F9384E161
S11314A09AE09F938F9386E793E09F938F930E9494
S11314B0B41186E793E00E94F4100FB6F894DEBFEF
S11314C00FBECDBFB0C2B8018CE491E00E944711B9
S11314D0892B39F0B80184E591E00E944711892BEA
S11314E079F48AE591E00E94F41098E088E10FB65F
S11314F0F894A895809360000FBE90936000FFCF8E
S1131500EA2CB80189E691E00E944711892B81F405
S1131510FF2059F08FEF8A0D823050F4C6010E94EB
S1131520291161E00E947B0853C280916C033EC282
S1131530B80183E791E00E944711892B81F4FF20D1
S113154059F08FEF8A0D823050F4C6010E942911A0
S113155061E00E9490083CC280916B0327C2B801ED
S11315608EE791E00E944711892B81F4FF2059F006
S11315708FEF8A0D833050F4C6010E94291161E077
S11315800E941D0825C28091640310C2B8018CE832
S113159091E00E944711892B81F4FF2059F08FEFCD
S11315A08A0D833050F4C6010E94291161E00E9423
S11315B030080EC280916303F9C1B8018AE991E051
S11315C00E944711892B81F4FF2059F08FEF8A0D77
S11315D0823050F4C6010E94291161E00E94430840
S11315E0F7C180916203E2C1B80188EA91E00E94E8
S11315F04711892B79F4FF2051F0B1E0EB120AC0B6
S1131600C6010E94291161E00E945608E1C180913F
S11316106103CCC1B80183EB91E00E944711892B8F
S113162079F4FF2051F021E0E2120AC0C6010E94C1
S1131630291161E00E946808CBC180916503B6C19D
S1131640B80180EC91E00E944711892B79F4FF20C6
S113165051F031E0E3120AC0C6010E94291161E091
S11316600E94A508B5C180910301A0C1B8018EEC08
S113167091E00E944711892B79F4FF2051F041E059
S1131680E4120AC0C6010E94291161E00E94B80850
S11316909FC1809105018AC1B80181EE91E00E9449
S11316A04711892B79F4FF2051F051E0E5120AC06B
S11316B0C6010E94291161E00E94CB0889C1809172
S11316C0040174C1B80183EF91E00E944711892B92
S11316D079F4FF2051F081E0E8120AC0C6010E94AB
S11316E0291161E00E94DE0873C1809175035EC117
S11316F0B80187E092E00E944711892B81F4FF2012
S113170059F08FEF8A0D833050F4C6010E942911DD
S113171061E00E94F3075CC180915E0347C1B80198
S113172085E192E00E944711892B81F4FF2059F052
S11317308FEF8A0D833050F4C6010E94291161E0B5
S11317400E94080845C180915D0330C1B8018BE255
S113175092E00E944711892B29F4F11003C00E94E2
S1131760000661C1B80180E392E00E944711892B11
S1131770C9F4FF20B9F091E0E91214C0C6010E9437
S11317802911883008F04FC121E030E0D90102C0AE
S1131790AA0FBB1F8A95E2F7CD019091060161E083
S11317A0892B20C0B80181E492E00E944711892B63
S11317B0E1F4FF20D1F0B1E0EB1217C0C6010E94A2
S11317C02911883008F02FC121E030E0A90102C0BE
S11317D0440F551F8A95E2F7CA018095909106013E
S11317E061E089230E94E507F3C0B80181E592E036
S11317F00E944711892B39F5F11025C000E010E053
S11318004AE050E066E773E0C8010E945A1186E797
S113181093E00E94F4108091060190E0002E02C033
S1131820959587950A94E2F780FF03C08BE592E0D3
S113183002C082E692E00E94F4100F5F1F4F08304E
S11318401105F1F6F0C0B80188E692E00E94471154
S1131850892BA1F5F11032C000E010E0F02E4AE02F
S113186050E066E773E0C8010E945A1186E793E0EE
S11318700E94F4108091060190E0002E02C095951C
S113188087950A94E2F780FF03C085E792E002C0DF
S11318908CE792E00E94F4108F2D0E94910588231A
S11318A019F083E892E002C087E892E00E94F41005
S11318B00F5F1F4F0830110589F6B5C0B8018CE8D9
S11318C092E00E944711892B59F4FF2049F051E01E
S11318D0E51206C0C6010E94291141E061E011C071
S11318E0B80187E992E00E944711892B69F4FF202F
S11318F059F081E0E81208C0C6010E94291141E0B4
S113190060E00E94950564C0B80183EA92E00E94F9
S11319104711892B39F4F11005C080915F03909130
S113192060031BC0B80186EB92E00E944711892B2B
S113193039F4F11005C080917003909171030DC0CA
S1131940B8018CEC92E00E944711892B89F4F110C4
S11319500FC080916E0390916F034AE050E066E7F8
S113196073E00E945A1186E793E00E94F4105BC072
S1131970BE016E5D7F4F87EE92E00E944711892B76
S113198039F4F11005C08091720390917303E5CF8F
S1131990BE016E5D7F4F8FEF92E00E944711892B4D
S11319A009F041C0F1103FC0809174034AE050E057
S11319B066E773E090E0D5CF203208F0C6CCA1E012
S11319C0B0E0AC0FBD1FA20FB11D3C932F5FBDCC87
S11319D0DF92CF921F930F9388E093E09F938F93AE
S11319E086E793E09F938F930E94921186E793E09A
S11319F00E94F4100FB6F894DEBF0FBECDBF109254
S1131A001003CE5BDF4F0FB6F894DEBF0FBECDBF21
S1131A10DF91CF911F910F91FF90EF90DF90CF90C6
S1131A20BF90AF9008958AE00E94DF10E8CFCF9373
S1131A30809110038230A1F1C1E00E94C4109C0186
S1131A40432F552747FD5A95452B39F5C09310036D
S1131A508D3099F3E09112038A3089F482E0809307
S1131A601003E03438F4AE2FB0E0AD5EBC4F1C92EE
S1131A70EF5FF7CF83E193E0CF910C947309E034E7
S1131A8018F0CF910C94670991E09E0F9093120384
S1131A90F0E0ED5EFC4F8083D0CF2115314089F713
S1131AA0CF9108958DE090E00E94771460E00E9449
S1131AB0E507559A569A579A209A219A229A239A78
S1131AC0249A6091060180E00E9413103A98399894
S1131AD03B98259A529A539A549AE8E6F0E080810A
S1131AE087608083ECE6F0E080818F6080831BBA9E
S1131AF00895E1E8F0E080818D6080831092800099
S1131B0084E994E090938900809388001092850082
S1131B1010928400EFE6F0E080818260808310926E
S1131B206D03089580911103811104C082E08093B4
S1131B30110307C0815080931103811102C00E94D8
S1131B40670980915703882359F080915703815086
S1131B508093570380915703811102C00E947C0730
S1131B6080915B03882339F05A9A80915B038150FA
S1131B7080935B0301C05A9880915A03882339F0FB
S1131B805B9A80915A03815080935A0301C05B98F9
S1131B9080915903882339F05C9A809159038150CC
S1131BA08093590308955C98089580915C03846040
S1131BB080935C030895809153039091540301969C
S1131BC09093540380935303089580915503909107
S1131BD056030196909356038093550395B180E282
S1131BE0892785B980917403833051F480917203FD
S1131BF0909173030196909373038093720316C0BC
S1131C0080917403823091F48091700390917103F8
S1131C100196909371038093700380916E03909169
S1131C206F03019690936F0380936E0382E00E948A
S1131C309105882349F080915F0390916003019698
S1131C409093600380935F0380910101882329F0BE
S1131C5080910101815080930101809100018823CA
S1131C6029F08091000181508093000180915503F7
S1131C709091560380915503909156036AE070E069
S1131C800E940F11892B11F40E94D50D80915503E8
S1131C9090915603809155039091560380319E4054
S1131CA030F00E94DB0D10925603109255030895F4
S1131CB022E042E051E063E086E290E00E945C05AD
S1131CC08F3F29F080915C03816080935C0323E063
S1131CD042E051E062E086E290E00E945C058111FE
S1131CE004C080910101882379F024E042E051E0AE
S1131CF061E086E290E00E945C05811110C0809151
S1131D000001882339F0089580915C0382608093F8
S1131D105C03EBCF80915C03826080935C03089545
S1131D201F920F920FB60F9211242F933F934F934C
S1131D305F936F937F938F939F93AF93BF93EF932F
S1131D40FF930E94580EFF91EF91BF91AF919F9125
S1131D508F917F916F915F914F913F912F910F9050
S1131D600FBE0F901F9018951F920F920FB60F92EF
S1131D7011242F933F934F935F936F937F938F938C
S1131D809F93AF93BF93EF93FF930E94900EFF91A5
S1131D90EF91BF91AF919F918F917F916F915F91DF
S1131DA04F913F912F910F900FBE0F901F90189558
S1131DB01F920F920FB60F9211242F933F934F93BC
S1131DC05F936F937F938F939F93AF93BF93EF939F
S1131DD0FF930E94900EFF91EF91BF91AF919F915D
S1131DE08F917F916F915F914F913F912F910F90C0
S1131DF00FBE0F901F9018951F920F920FB60F925F
S1131E0011242F933F934F935F936F937F938F93FB
S1131E109F93AF93BF93EF93FF930E94920D809192
S1131E206D038F5F80936D0380916D038A3021F47D
S1131E300E94E50D10926D03FF91EF91BF91AF9158
S1131E409F918F917F916F915F914F913F912F91CE
S1131E500F900FBE0F901F9018950FB6F894A89589
S1131E6080916000886180936000109260000FBED2
S1131E70F8940E94520D86E290E00E94AB100E94FA
S1131E80F0080E9412090E9435090E9443090E9429
S1131E904A090E945F090E94790D80B7806880BF5B
S1131EA083B7816083BF789489E59AE00E9400112A
S1131EB0A895F89480915C0380FF12C080915C0324
S1131EC08E7F80935C038EE899E00E9400112FE7D7
S1131ED08FE492E1215080409040E1F700C000007F
S1131EE078940E94170DE4CF0F931F93CF93DF9341
S1131EF01F92CDB7DEB7982FDB01082F10E0083012
S1131F001105C8F5F801EC5CFF4F0C94231185E032
S1131F1001C086E0898329E230E0EBE2F0E010C002
S1131F2087E0F8CF198208C081E005C082E003C0D1
S1131F3083E001C084E0898323E230E0E5E2F0E05D
S1131F409C931596FC93EE93149713963C932E93BF
S1131F501297898111968C93119721E030E0B90191
S1131F6002C0660F771F9A95E2F7CB018423169679
S1131F708C9381E001C080E00F90DF91CF911F919D
S1131F800F9108951F93CF93DF93CDB7DEB72797B3
S1131F900FB6F894DEBF0FBECDBF162FBE016F5F24
S1131FA07F4F0E94740F8823A1F1EB81FC81208173
S1131FB081E090E00A8002C0880F991F0A94E2F73A
S1131FC028233F81332329F0113069F0111110C007
S1131FD002C0113031F4ED81FE8190818095892316
S1131FE006C0111105C0ED81FE819081892B80838B
S1131FF0EB81FC81308181E090E00A8002C0880F8F
S1132000991F0A94E2F7932F982381E0921301C059
S113201080E027960FB6F894DEBF0FBECDBFDF91E8
S1132020CF911F9108951F93CF93DF93D82F162F2D
S1132030C0E0412F6D2F8C2F0E94C20FCF5FC8309C
S1132040C1F7DF91CF911F910895CF93DF93CDB75F
S1132050DEB727970FB6F894DEBF0FBECDBF462F6D
S1132060BE016F5F7F4F0E94740F8823B1F0ED8132
S1132070FE81208181E090E00A8002C0880F991FD0
S11320800A94E2F7922F98238F81811105C081E091
S1132090992319F080E001C0892F27960FB6F89490
S11320A0DEBF0FBECDBFDF91CF9108951F920F9277
S11320B00FB60F9211242F938F939F93EF93FF9357
S11320C08091C0009091C6008871E091B803EF5FE1
S11320D0EF732091B703E21739F0E093B803F0E00F
S11320E0E554FC4F908301C082E08093B603FF91D6
S11320F0EF919F918F912F910F900FBE0F901F9092
S113210018951F920F920FB60F9211248F939F93DD
S1132110EF93FF939091BA038091B903981769F0F4
S1132120E091B903EF5FEF73E093B903F0E0E5509A
S1132130FC4F80818093C60005C08091C1008F7DD3
S11321408093C100FF91EF919F918F910F900FBEEB
S11321500F901F9018951092BA031092B903109221
S1132160B8031092B70397FF04C022E02093C00085
S11321709F779093C5008093C40088E98093C10041
S113218086E08093C20008959091B8038091B703CC
S1132190981791F0E091B703EF5FEF73E093B70303
S11321A0F0E0E554FC4F20818091B60390E0982F35
S11321B08827820F911D089580E091E00895909101
S11321C0BA039F5F9F732091B9039217E1F3E92F3C
S11321D0F0E0E550FC4F80839093BA038091C100F6
S11321E080628093C1000895CF93DF93EC018991BD
S11321F0882319F00E94DF10FACFDF91CF91089560
S1132200CF93DF93FC018491EF012196882321F081
S11322100E94DF10FE01F7CFDF91CF910895AA1B32
S1132220BB1B51E107C0AA1FBB1FA617B70710F0BD
S1132230A61BB70B881F991F5A95A9F780959095EF
S1132240BC01CD010895EE0FFF1F0590F491E02D20
S11322500994FC0188279927E89421912032E9F315
S1132260293010F02E30C8F32B3241F02D3239F4DE
S1132270689404C00E947011820F911D2191205313
S11322802A30C0F31EF4909581959F4F0895FB0169
S1132290DC018D9181341CF08B350CF4805E6191EE
S11322A061341CF06B350CF4605E861B611189F39C
S11322B0990B08954532510520F4423010F00C94E6
S11322C06511FB011082CB010895BB274A3031F41C
S11322D0992322F4BDE2909581959F4F0C94791136
S11322E07AE0979F902D879F802D910D112408955A
S11322F0BB27FB015527AA27880F991FAA1FA417DC
S113230010F0A41B83955051B9F7A05DAA3308F0CF
S1132310A95DA193009779F7B111B1931192CB0103
S11323200C94CD13AEE0B0E0E8E9F1E10C949F1415
S11323300D891E8986E08C831A8309838FEF9FE7BA
S11323409E838D83AE01475E5F4F6F89788DCE018A
S113235001960E94D611EF81F885E00FF11F1082DB
S11323602E96E4E00C94BB14AEE0B0E0EAEBF1E1AD
S11323700C949F140D891E898EE08C831A83098323
S11323808FEF9FE79E838D83AE01475E5F4F6F891A
S1132390788DCE0101960E94D611EF81F885E00F69
S11323A0F11F10822E96E4E00C94BB14ABE0B0E075
S11323B0ECEDF1E10C9491146C017B018A01FC01B8
S11323C017821682838181FFCCC1CE0101963C0124
S11323D0F6019381F70193FD859193FF81917F012C
S11323E0882309F4BAC1853239F493FD859193FFAA
S11323F081917F01853229F4B60190E00E94DD13BA
S1132400E7CF912C212C312CFFE1F315D8F08B323E
S113241079F038F4803279F08332A1F4232D2061ED
S11324201DC08D3261F0803369F4232D216016C004
S1132430832D8260382EE32DE4603E2E2AC0F32DD6
S1132440F8601DC037FC2DC020ED280F2A3040F065
S11324508E32B9F436FC81C1232D2064322E19C08A
S113246036FE06C08AE0989E200D1124922E11C0DB
S1132470EAE02E9E200D1124222EF32DF0623F2E31
S113248008C08C3621F4832D8068382E02C088362B
S113249041F4F70193FD859193FF81917F018111AF
S11324A0B3CF982F9F7D9554933028F40C5F1F4F22
S11324B09FE399830DC0833631F0833771F0833500
S11324C009F059C021C0F801808189830E5F1F4F34
S11324D088248394912C530113C02801F2E04F0EF9
S11324E0511CF801A080B18036FE03C0692D70E054
S11324F002C06FEF7FEFC5010E94C2134C0182013D
S1132500F32DFF773F2E16C0280122E0420E511C06
S1132510F801A080B18036FE03C0692D70E002C0CE
S11325206FEF7FEFC5010E94B7134C01F32DF068E4
S11325303F2E820133FC1BC0822D90E08816990641
S1132540B0F4B60180E290E00E94DD132A94F4CF47
S1132550F50137FC859137FE81915F01B60190E06A
S11325600E94DD1321102A9421E0821A910881141B
S1132570910471F7E8C0843611F0893641F5F80109
S113258037FE07C060817181828193810C5F1F4F88
S113259008C060817181072E000C880B990B0E5FB7
S11325A01F4FF32DFF763F2E97FF09C0909580951E
S11325B0709561957F4F8F4F9F4FF0683F2E2AE0B3
S11325C030E0A3010E941914882E861845C085376F
S11325D031F4232D2F7EB22E2AE030E025C0932D36
S11325E0997FB92E8F36C1F018F4883579F0B5C0CB
S11325F0803719F0883721F0B0C0E92FE061BE2E92
S1132600B4FE0DC0FB2DF460BF2E09C034FE0AC019
S1132610292F2660B22E06C028E030E005C020E154
S113262030E002C020E132E0F801B7FE07C060816B
S11326307181828193810C5F1F4F06C0608171811B
S113264080E090E00E5F1F4FA3010E941914882EB2
S11326508618FB2DFF773F2E36FE0DC0232D2E7FCF
S1132660A22E891458F434FE0BC032FC09C0832D09
S11326708E7EA82E05C0B82CA32C03C0B82C01C094
S1132680B92CA4FE0FC0FE01E80DF11D808180333A
S113269021F49A2D997EA92E09C0A2FE06C0B394F6
S11326A0B39404C08A2D867809F0B394A3FC11C0B6
S11326B0A0FE06C0B21488F4280C922C9B180EC0FD
S11326C0B21460F4B60180E290E00E94DD13B3948A
S11326D0F7CFB21418F42B1802C0982C212CA4FEA6
S11326E010C0B60180E390E00E94DD13A2FE17C083
S11326F0A1FC03C088E790E002C088E590E0B60141
S11327000CC08A2D867859F0A1FE02C08BE201C06C
S113271080E2A7FC8DE2B60190E00E94DD138914EB
S113272038F4B60180E390E00E94DD139A94F7CF69
S11327308A94F301E80DF11D8081B60190E00E94B6
S1132740DD138110F5CF222009F442CEB60180E2D8
S113275090E00E94DD132A94F6CFF60186819781DA
S113276002C08FEF9FEF2B96E2E10C94AD14FC01B5
S11327700590615070400110D8F7809590958E0FA8
S11327809F1F0895FC016150704001900110D8F71B
S1132790809590958E0F9F1F0895DC01FC01672F93
S11327A071917723E1F7329704C07C916D93708324
S11327B06291AE17BF07C8F308950F931F93CF9389
S11327C0DF93FB01238121FD03C08FEF9FEF2CC01A
S11327D022FF16C046815781248135814217530751
S11327E044F4A081B1819D012F5F3F4F3183208349
S11327F08C93268137812F5F3F4F3783268314C004
S11328008B01EC01FB010084F185E02D0995892BF6
S1132810E1F6D80116968D919C911797019617961B
S11328209C938E931697CE01DF91CF911F910F91B8
S11328300895FA01AA27283051F1203181F1E89452
S11328406F936E7F6E5F7F4F8F4F9F4FAF4FB1E09F
S11328503ED0B4E03CD0670F781F891F9A1FA11D9A
S1132860680F791F8A1F911DA11D6A0F711D811D9B
S1132870911DA11D20D009F468943F912AE0269F60
S113288011243019305D3193DEF6CF010895462FBF
S11328904770405D4193B3E00FD0C9F7F6CF462FA0
S11328A04F70405D4A3318F0495D31FD4052419309
S11328B002D0A9F7EACFB4E0A695979587957795C6
S11328C06795BA95C9F700976105710508959B014D
S11328D0AC010A2E06945795479537952795BA95D6
S11328E0C9F7620F731F841F951FA01D0895F999DE
S11328F0FECF92BD81BDF89A992780B50895262F01
S1132900F999FECF92BD81BDF89A019700B40216E1
S113291039F01FBA20BD0FB6F894FA9AF99A0FBE8F
S113292008952F923F924F925F926F927F928F926F
S11329309F92AF92BF92CF92DF92EF92FF920F934A
S11329401F93CF93DF93CDB7DEB7CA1BDB0B0FB654
S1132950F894DEBF0FBECDBF09942A883988488811
S11329605F846E847D848C849B84AA84B984C884A7
S1132970DF80EE80FD800C811B81AA81B981CE0F9E
S1132980D11D0FB6F894DEBF0FBECDBFED01089583
S1072990F894FFCFE5
S113299401021B010101FF48454C5000424F4F54B2
S11329A44C4F41444552004C61756E636820626F1C
S11329B46F746C6F6164657220696E2031302073AA
S11329C465636F6E647300480056455253494F4E15
S11329D400312E3100555054494D4500524553544D
S11329E44152540052455345540052657374617204
S11329F474696E672E2E2E0A00482D56454E542DAA
S1132A044F4E00482D56454E542D4F4646005645CC
S1132A144E542D4D41582D54494D450056454E5460
S1132A242D4D494E2D54494D450056454E542D4D7A
S1132A34494E2D54454D500056454E542D4146544F
S1132A4445520056454E542D454E41424C45440092
S1132A544D555349432D454E41424C4544004C4940
S1132A644748542D4D41494E2D454E41424C454411
S1132A74004C494748542D5345432D454E41424C3F
S1132A844544004C494748542D52454C41582D4522
S1132A944E41424C454400494E562D574149542D0C
S1132AA454494D4500534F4D45424F44592D494EC9
S1132AB42D574149542D54494D4500544553540010
S1132AC45345542D484947482D50494E2D4C45569D
S1132AD4005345542D4C4F572D50494E2D4C4556BB
S1132AE40050494E2D4C4556454C002D4849474805
S1132AF40A002D4C4F570A004F55545055542D532A
S1132B0454415445002D4849474820002D204C4F3A
S1132B145720004F4E0A004F46460A005345542D91
S1132B2450494E2D4F4E005345542D50494E2D4F70
S1132B3446460056656E74576F726B696E67436FD1
S1132B44756E74657200536F6D65626F6479496E56
S1132B5454696D65436F756E74657200536F6D656A
S1132B64626F6479496E576974686F75744D444330
S1132B746F756E746572004C617374416374697625
S1132B8469747954696D65436F756E746572005226
S1132B946F6F6D4D6F64650025733D25730A0000E6
S9030000FC
