:100000000C9434000C9451000C9451000C94B903DE
:100010000C9451000C9409040C9451000C94510060
:100020000C9451000C9451000C9451000C94530406
:100030000C9451000C9451000C9451000C945100FC
:100040000C9451000C9451000C94C3040C94EE04D5
:100050000C9451000C9451000C9451000C945100DC
:100060000C9451000C94510011241FBECFEFD8E026
:10007000DEBFCDBF11E0A0E0B1E0ECE7FCE002C0E4
:1000800005900D92A430B107D9F721E0A4E0B1E0CA
:1000900001C01D92AF35B207E1F70E948F040C94A6
:1000A0003C060C940000CF92DF92EF92FF920F93E8
:1000B0001F93CF93DF9300D000D01F92CDB7DEB750
:1000C000FC014D9B6BC0559A4D9883EC99E00197CC
:1000D000F1F700C00000559899E24D9B04C0000064
:1000E0009150D9F75DC096E54D9904C0000091503C
:1000F000D9F758C096E54D9B04C000009150D9F740
:1001000053C09E012F5F3F4F85E0D9011D928A9514
:10011000E9F7D901AE014A5F5F4F88E020E098E33C
:100120004D9904C000009150D9F740C09AE09A95CB
:10013000F1F7220F4D9B09C09EE24D9902C021604C
:1001400004C000009150C9F733C0815041F72D938E
:100150004A175B0711F7E980F12C0A8110E0AB81A7
:10016000B0E04C8150E09701200F311F2A0F3B1F58
:10017000240F351F3327CD80D12C2C153D05D1F40C
:10018000FE2CEE240E0D1F1D11830083BA2FAA270B
:100190004A0F5B1FDB014D935C930DC081E00BC0E8
:1001A00082E009C083E007C084E005C085E003C0A9
:1001B00086E001C087E00F900F900F900F900F9096
:1001C000DF91CF911F910F91FF90EF90DF90CF9033
:1001D0000895FA01DC018C9190E002C09595879515
:1001E0006A95E2F78170608170E0022E02C0759519
:1001F00067950A94E2F761707727482F082E000C64
:10020000550B64177507E1F0882369F0908141E090
:1002100050E0BA0102C0660F771F2A95E2F79B01F2
:10022000292B20830895308181E090E002C0880F5F
:10023000991F2A95E2F780958323808380E00895B3
:100240008FEF089533B125B181E090E002C0880FAF
:10025000991F3A95E2F7822B85B910920901109205
:100260000801089533B125B181E090E002C0880F04
:10027000991F3A95E2F780959095822385B9089564
:100280008091020185FF19C023B145B181E090E062
:10029000BC0102C0660F771F2A95E2F79B012095EB
:1002A0003095242325B933B125B102C0880F991F99
:1002B0003A95E2F7822B85B9089523B145B181E0E3
:1002C00090E0BC0102C0660F771F2A95E2F79B0100
:1002D000242B25B933B125B102C0880F991F3A9557
:1002E000E2F7822B85B9089523B145B181E090E012
:1002F000BC0102C0660F771F2A95E2F79B0120958B
:100300003095242325B933B125B102C0880F991F38
:100310003A95E2F780959095822385B90895CF9319
:10032000909119019817B1F1C82F823091F40E9471
:10033000400133B125B181E090E002C0880F991FE0
:100340003A95E2F780959095822385B90E94320113
:100350001FC0833071F40E94400133B125B181E0A8
:1003600090E002C0880F991F3A95E2F7822B85B979
:100370000FC0813069F40E94740133B125B181E06E
:1003800090E002C0880F991F3A95E2F7822B85B959
:10039000C0931901CF91089580910A0182688093DA
:1003A0000A01109214011092130110921801109278
:1003B0001701319B04C083E00E948F0108951092C1
:1003C000160110921501109214011092130182E08F
:1003D0000E948F0108951D9901C01C990E9440013F
:1003E000089580E090E00E942206809310018091A1
:1003F0001001823320F080911001853618F08BE4D3
:1004000080931001089580910601909107018D322B
:10041000914050F06091100180E090E00E942A0627
:1004200010920701109206010895CF93DF9300D038
:10043000CDB7DEB76DE071E0CE0101960E945300AA
:10044000873031F46DE071E0CE0101960E945300D7
:10045000882329F010920C0180930B011AC081E0CF
:1004600080930C0129813A81ADECBCEC0E9413060B
:10047000969587959695879596958795BC0180E08A
:1004800090E00E9460050E94C6050E9431056093BD
:100490000F010F900F90DF91CF9108951B9B16C015
:1004A00080910C01813049F58091080190910901FA
:1004B0008A35910510F18091100120910F0130E0F3
:1004C00090E005978217930714F517C080910C01EF
:1004D000813099F48091100190910F01981768F084
:1004E0008091080190910901803B944020F0809117
:1004F0001901813011F00E94220180910801909130
:100500000901803B944030F00E94320108950E941E
:100510003201F3CF089580911901833091F4319B1A
:1005200003C020ED32E002C024EB30E080911701DF
:10053000909118018217930790F081E00E948F013B
:10054000089580911901823051F4809113019091A6
:10055000140181319E4018F081E00E948F010895BE
:10056000259A249A239A229A219A209A579A569A3F
:1005700023B145B181E090E0BC0102C0660F771F56
:100580002A95E2F79B0120953095242325B923B1C4
:1005900045B1BC0102C0660F771F2A95E2F79B01A7
:1005A00020953095242325B923B145B1BC0102C063
:1005B000660F771F2A95E2F79B012095309524233B
:1005C00025B923B145B1BC0102C0660F771F2A953A
:1005D000E2F79B0120953095242325B923B145B13D
:1005E000BC0102C0660F771F2A95E2F79B01242BFE
:1005F00025B923B145B1BC0102C0660F771F2A950A
:10060000E2F79B01242B25B929B14BB1BC0102C0F3
:10061000660F771F2A95E2F79B01242B2BB939B17E
:100620002BB102C0880F991F3A95E2F7822B8BB944
:100630003B983A983998549AE8E6F0E080818560D2
:100640008083EBE6F0E0808187608083EDE6F0E078
:100650008081806C80831BBA319B05C08091020130
:100660008460809302010895E1E8F0E080818D606C
:100670008083109280008DE093E0909389008093B6
:1006800088001092850010928400EFE6F0E08081EF
:10069000826080831092120110921101089580915E
:1006A0000401823039F4809102018062809302015A
:1006B0000E94EB011092040108959BB180E189270B
:1006C0008BB980911901833051F480911701909179
:1006D00018010196909318018093170116C080911C
:1006E0001901823091F480911501909116010196C3
:1006F000909316018093150180911301909114013C
:10070000019690931401809313011B9B09C0809163
:1007100008019091090101969093090180930801C5
:1007200080910601909107010196909307018093B3
:100730000601809105018B3020F0109205010E9486
:10074000150280910101882329F0809101018150D7
:100750008093010180910001882329F0809100019C
:10076000815080930001809105018F5F8093050186
:1007700008951F920F920FB60F9211242F933F935B
:100780004F935F936F937F938F939F93AF93BF9399
:10079000EF93FF9322E042E051E061E086E290E0D7
:1007A0000E94E9008F3F21F180910A0181648093CA
:1007B0000A01109214011092130110921801109264
:1007C000170182E08093010181E08093000131995B
:1007D00005C0809104018F5F809304018091020124
:1007E0008F7D809302010E94EB0183E00E948F01C4
:1007F000FF91EF91BF91AF919F918F917F916F91F9
:100800005F914F913F912F910F900FBE0F901F90CE
:1008100018951F920F920FB60F9211242F933F93AA
:100820004F935F936F937F938F939F93AF93BF93F8
:10083000CF93DF93EF93FF9323E042E051E063E037
:1008400086E290E00E94E900D82F24E042E051E0E7
:1008500062E086E290E00E94E900C82FD11104C056
:1008600080910101882339F0C1110AC080910001F3
:10087000882321F005C00E94CC01F6CF0E94CC0154
:10088000FF91EF91DF91CF91BF91AF919F918F91A8
:100890007F916F915F914F913F912F910F900FBE7C
:1008A0000F901F9018951F920F920FB60F92112460
:1008B0002F933F934F935F936F937F938F939F9368
:1008C000AF93BF93EF93FF93809112018F5F80935B
:1008D0001201809112018A3021F40E945D0310926E
:1008E0001201809111018F5F80931101809111019C
:1008F000843121F40E944F0310921101FF91EF9176
:10090000BF91AF919F918F917F916F915F914F9127
:100910003F912F910F900FBE0F901F9018950FB61B
:10092000F894A8958091600088618093600010928F
:1009300060000FBEF8940E94B0029FE088E10FB6FD
:10094000F894A895809360000FBE909360000E9479
:10095000F1010E9415020E94340389E190E00E9497
:10096000180580B7806880BF83B7816083BF7894A3
:10097000F8940E948B020E94030278940E944E0217
:100980008895A895F5CF1F920F920FB60F9211245C
:100990002F938F939F93EF93FF938091C0002091AB
:1009A000C6008871E0911C01EF5FEF7190911B010F
:1009B000E91739F0E0931C01F0E0E15EFE4F20837F
:1009C00001C082E080931A01FF91EF919F918F9176
:1009D0002F910F900FBE0F901F9018951F920F929E
:1009E0000FB60F9211248F939F93EF93FF939091E3
:1009F0001E0180911D01981769F0E0911D01EF5FC4
:100A0000EF71E0931D01F0E0E15CFE4F8081809387
:100A1000C60005C0E1ECF0E080818F7D8083FF910E
:100A2000EF919F918F910F900FBE0F901F9018958F
:100A300010921E0110921D0110921C0110921B01B8
:100A4000992324F422E02093C0009F779093C5005F
:100A50008093C40088E98093C10086E08093C2003F
:100A600008950E94A50588F09F5798F0B92F9927FF
:100A7000B751B0F0E1F0660F771F881F991F1AF089
:100A8000BA95C9F714C0B13091F00E94BF05B1E02A
:100A900008950C94BF05672F782F8827B85F39F029
:100AA000B93FCCF3869577956795B395D9F73EF422
:100AB00090958095709561957F4F8F4F9F4F0895CA
:100AC000E89409C097FB3EF49095809570956195E8
:100AD0007F4F8F4F9F4F9923A9F0F92F96E9BB279E
:100AE0009395F695879577956795B795F111F8CF1A
:100AF000FAF4BB0F11F460FF1BC06F5F7F4F8F4F85
:100B00009F4F16C0882311F096E911C0772321F07A
:100B10009EE8872F762F05C0662371F096E8862F12
:100B200070E060E02AF09A95660F771F881FDAF769
:100B3000880F9695879597F9089557FD9058440F1B
:100B4000551F59F05F3F71F04795880F97FB991F2C
:100B500061F09F3F79F087950895121613061406E9
:100B6000551FF2CF4695F1DF08C016161706180676
:100B7000991FF1CF86957105610508940895E89451
:100B8000BB2766277727CB0197F908950E94A50513
:100B9000E8F09E37E8F09639B8F49E3848F4672FAD
:100BA000782F8827985FF9CF8695779567959395E5
:100BB0009539D0F3B62FB1706B0F711D811D20F4E4
:100BC00087957795679593950C94EA050C9405069F
:100BD0000C94C005882371F4772321F09850872B5B
:100BE000762F07C0662311F499270DC09051862BEC
:100BF00070E060E02AF09A95660F771F881FDAF799
:100C0000880F9695879597F908959F3F31F09150F9
:100C100020F4879577956795B795880F911D9695E0
:100C2000879597F90895A29FB001B39FC001A39F34
:100C3000700D811D1124911DB29F700D811D112415
:100C4000911D0895F999FECF92BD81BDF89A99271B
:100C500080B50895262FF999FECF92BD81BDF89AEF
:100C6000019700B4021639F01FBA20BD0FB6F894F0
:0C0C7000FA9AF99A0FBE0895F894FFCF8D
:040C7C0001021B0056
:00000001FF
