:1078000021E0A0E0B1E001C01D92AA35B207E1F786
:10781000CFEFD8E0DEBFCDBF11241FBE6BC08136D5
:1078200010F087550895813410F087530895803300
:1078300010F08053089580E008951F93CF93DF9355
:107840001F92CDB7DEB769830E940F3C182F698164
:10785000862F0E940F3C90E1199F800D11240F90FC
:10786000DF91CF911F91089524E0969587952A95F1
:10787000E1F79093C5008093C4001092C00088E1A6
:107880008093C10086E08093C2000895CF93C82FF3
:107890008D3019F48AE00E94463C8091C00085FF3B
:1078A000FCCFC093C600CF9108958091C00087FFA0
:1078B000FCCF8091C60008958F708A3010F0895AED
:1078C00001C0805D0C94463CCF93C82F82958F7089
:1078D0000E945C3C8C2FCF910C945C3CCF93DF9347
:1078E000EC0102C00E94463C89918111FBCFDF91DF
:1078F000CF910895CF93DF93CDB7DEB72A970FB618
:10790000F894DEBF0FBECDBFF8948BB183608BB906
:107910001092800081E08093810084B7877F84BFCC
:107920008091600088618093600086E480936000AD
:10793000109203011092020151E104C08091600095
:1079400087FD04C04899FACF40E001C041E01092A1
:1079500085001092840004C08091600087FD03C000
:10796000489BFACF01C041E0513170F4209184006E
:10797000309185008091020190910301820F931F45
:107980009093030180930201515019F04423D1F2E6
:1079900041E08091600088618093600010926000F7
:1079A0004130A1F410928100109285001092840061
:1079B0008BB18C7F8BB91092C5001092C4001092CD
:1079C000C10086E08093C2000C9400008091020107
:1079D0009091030124E0969587952A95E1F790937D
:1079E0000301809302018FE493EC0197F1F700C04B
:1079F000000080910201909103010E94343C0E949A
:107A0000553C0E94553C853569F60E94553C8535AC
:107A100049F60E94553C853529F683E60E94463C8E
:107A200084E30E94463C85E30E94463C82E60E9435
:107A3000463C82E30E94463C80E20E94463C86E748
:107A40000E94463C82E30E94463C8EE20E94463CF5
:107A500089E30E94463C8EE40E94463C1092280135
:107A6000CC24CA94DC2C7601992493948DE00E9456
:107A7000463C8EE30E94463C81E10E94463C10E079
:107A80000E94553CE12FF0E0E85DFE4F8083853594
:107A9000B9F3833021F498E59093280103C01F5F68
:107AA0008A3071F7E12FF0E0DF01A95DBE4F1C9233
:107AB000EA5DFE4F80818D3009F4108283E10E94DF
:107AC000463C88E291E00E946E3C109128011736F6
:107AD00059F020F4153609F00CC22AC01D3641F1C8
:107AE000103709F006C265C08BE20E94463C8DE06B
:107AF0000E94463C81E10E94463CAFE4B3EC119702
:107B0000F1F700C0000010928100109285001092E1
:107B100084008BB18C7F8BB91092C5001092C40089
:107B20001092C100B6E0B093C2000C9400009ECF4A
:107B300060912B0180912A010E941D3C082F6091C9
:107B40002D0180912C010E941D3C0C831B82AB8077
:107B5000BC80A80EB11C809129018737A9F46091DF
:107B60002F0180912E010E941D3C082F153631F403
:107B7000F999FECF602FC5010E948F3F80912801A7
:107B80008D3611F4F501008380912801853629F4A2
:107B9000C5010E947D3F182F02C0D5011C918BE2C8
:107BA0000E94463C8DE00E94463C812F0E94643C2E
:107BB0005DCF8BE20E94463C8DE00E94463C1092D5
:107BC000210180912901853611F490922101C09202
:107BD0000501D0920601E0920701F092080110928F
:107BE000230110922201109225011092240110927B
:107BF0000A011092040110920B0181E10E94463C9F
:107C000010E00E94553CA12FB0E0A85DBE4F8C93C0
:107C10001F5F8A30B1F783E10E94463CE12FF0E01C
:107C2000E95DFE4F108260912A01809129010E9436
:107C30001D3CB82E8093090160912C0180912B018D
:107C40000E941D3C082F8A83198260912E01809129
:107C50002D010E941D3C49805A80480E511C6091A4
:107C6000300180912F010E941D3C182F8093270125
:107C70000B0D080F040D00930C01EB2DF0E03F01FC
:107C8000660C771CF301EE5CFE4FD301A85DBE4F7E
:107C9000608119968C910E941D3C882E809326014C
:107CA0001230D9F460913201809131010E941D3C63
:107CB000382E212C60913401809133010E941D3CAB
:107CC000F101E80FF11DCF01F0932501E0932401AC
:107CD000830D800F80930C0183C0113029F4109321
:107CE000040110930B017CC011117AC08091050131
:107CF00090910601A0910701B09108018F3F9F4F1D
:107D0000AF4FBF4F59F4C201A0E0B0E0809305012E
:107D100090930601A0930701B093080150912101AF
:107D2000009124011091250184E0000F111F8A9514
:107D3000E1F78091050190910601080F191F20912C
:107D40002201309123013A87298750900C0140E0AD
:107D500039C0B8E2AB2EB1E0BB2EA20EB31ED501E6
:107D60001A966C911A9719968C914F8358870E9496
:107D70001D3C482EF501648583850E941D3C242D01
:107D8000280F520E58854F81E985FA85513029F424
:107D9000E35FFE4F408281830EC0E00FF11F8E83B0
:107DA0001D828D819E81840D911D21E00C01209307
:107DB0005700E89511244C5F29853A852E5F3F4F87
:107DC0003A872987242F30E0261537050CF4C1CFD8
:107DD00029853A85309323012093220150920C018A
:107DE00080910C01880D19F090920A017CC08EE2FE
:107DF0000E94463C40912201509123014038510598
:107E000010F090920B01E0912101E13011F4E09328
:107E10000B01F0910B01F13009F05CC000910501FC
:107E20001091060120910701309108010F3F8FEF5B
:107E300018072807380709F44DC060912401709194
:107E4000250180E090E0A4E0660F771F881F991F4E
:107E5000AA95D1F7600F711F821F931F60930501D0
:107E6000709306018093070190930801E13039F483
:107E7000F999FECF8DE091E00E94853F1CC061150D
:107E8000A8E77A078105910518F0F0930A012BC045
:107E9000FB01B3E0B0935700E89507B600FCFDCFB7
:107EA00025E020935700E89507B600FCFDCF81E15F
:107EB00080935700E8958AE20E94463CC0920501F3
:107EC000D0920601E0920701F0920801109223017E
:107ED0001092220180910A01811105C08091040154
:107EE000882309F484CE80910A01811102C08BE2BB
:107EF00001C08DE20E94463CB9CDF999FECF92BDFA
:107F000081BDF89A992780B50895DC01CB0103C0A3
:107F10002D910E94903F41505040D0F70895262F58
:107F2000F999FECF1FBA92BD81BD20BD0FB6F8945E
:0A7F3000FA9AF99A0FBE019608951F
:040000030000780081
:00000001FF
