:1000000019C033C032C08BC230C00FC32EC02DC048
:100010002CC02BC02AC0F4C328C027C026C025C0CE
:1000200024C023C022C021C020C01FC01EC01DC0CC
:100030001CC01BC011241FBECFEFD4E0DEBFCDBF5C
:1000400011E0A0E0B1E0EAECFEE002C005900D9204
:10005000A239B107D9F721E0A2E9B1E001C01D92B0
:10006000AB3AB207E1F706D42EC7CACFCF92DF92E0
:10007000EF92FF920F931F93CF93DF9300D000D0A6
:100080001F92CDB7DEB77C014D9B7BC0559A4D9832
:100090008FE19EE40197F1F700C00000559889E2D6
:1000A0004D9B08C092E09A95F1F700C08150C1F7CE
:1000B00082E06AC086E54D9908C0A2E0AA95F1F7F2
:1000C00000C08150C1F783E05FC086E54D9B08C04A
:1000D000B2E0BA95F1F700C08150C1F784E054C096
:1000E000FE01319685E0DF011D928A95E9F735E042
:1000F0003E0F88E090E028E34D9908C0B2E0BA9541
:10010000F1F700C02150C1F785E03EC020E52A95F7
:10011000F1F7990F4D9B0CC02EE24D9B08C042E0B9
:100120004A95F1F700C02150C1F786E02DC09160DB
:10013000815009F791933E13DCCF098110E0AA8129
:10014000B0E0EB81F0E04C8150E098012A0F3B1FBA
:100150002E0F3F1F240F351F3327CD80D12C2C1598
:100160003D0589F4102F00270A0F1B1FD7010D939F
:100170001C93FE2FEE274E0F5F1FFB015183408320
:1001800003C081E001C087E00F900F900F900F90A7
:100190000F90DF91CF911F910F91FF90EF90DF9023
:1001A000CF900895DA01FC013081E1E0F0E0CF0169
:1001B00001C0880F6A95EAF783236C9170E0022EE4
:1001C00002C0759567950A94E2F761707727482F0A
:1001D00050E06417750799F0AF0102C0440F551F36
:1001E0002A95E2F79A01882321F09C91292B2C93E0
:1001F00008958C91209528232C9380E008958FEF0B
:100200000895599A10929C0110929B010895599853
:1002100008958091020185FF02C05B9801C05B9A3E
:100220005C9A08955B985C980895CF939091AA0189
:100230008917B1F0C82F823021F4EBDF589AE7DF3D
:1002400008C0833011F4E5DF03C0813011F4EADF28
:100250005898C093AA0180919D01806280939D016E
:10026000CF91089580919D01826880939D011092A5
:10027000A5011092A4011092A9011092A801109258
:10028000970180919D01806280939D01189B02C01F
:1002900083E009C01092A7011092A6011092A50157
:1002A0001092A40182E0C1CF4B9901C04C99B1CF0B
:1002B000089580E03DD460E081E012D480919D01FA
:1002C000806280939D01089580E090E0E2D5809364
:1002D000A3018091A301823320F08091A301853690
:1002E00018F08BE48093A301089580919901909177
:1002F0009A018D32914048F06091A30180E090E036
:10030000D0D510929A01109299010895CF93DF935E
:1003100000D0CDB7DEB760EA71E0CE010196A6DE6F
:10032000873029F460EA71E0CE0101969FDE8823D0
:1003300029F010929F0180939E010FC081E080936D
:100340009F0189819A816AE070E04AD580E090E05F
:1003500098D4FDD46AD46093A20180919D018062FB
:1003600080939D010F900F90DF91CF910895809120
:100370009F01499B15C0813061F580919B0190914F
:100380009C018A35910528F18091A30190E00497A2
:100390002091A20130E028173907DCF438DF14C0BF
:1003A0008130B9F48091A3019091A201981788F04F
:1003B00080919B0190919C01803B944020F0809122
:1003C000AA01813031F01DDF80919D018062809310
:1003D0009D0180919B0190919C01803B944030F065
:1003E00016DF80919D01806280939D010895809128
:1003F000AA01833081F4189B03C080ED92E002C013
:1004000084EB90E02091A8013091A90128173907C9
:1004100068F081E00ACF8091AA01823039F480919E
:10042000A4019091A50181319E4098F708950F9302
:100430001F93CF93DF93CDB7DEB765970FB6F894D0
:10044000DEBF0FBECDBF8E010F5F1F4F81E1F801F0
:1004500011928A95E9F760E080E0D6D383E891E0D5
:10046000B0D34AE0BE016E5E7F4F84E090E0DED400
:1004700069E771E0C801D3D4BE016E5E7F4FC80149
:10048000C3D461E080E0C0D3C8019BD365960FB6AA
:10049000F894DEBF0FBECDBFDF91CF911F910F91BA
:1004A00008958AB18F618AB95698579820982298F2
:1004B0002198FFDE809168008560809368008091BC
:1004C0006B00876080936B0080916D00806C8093DF
:1004D0006D001BBA189B05C0809102018460809357
:1004E000020180B7806880BF83B7816083BF0895B1
:1004F000E1E8F0E080818D6080831092800084E8E4
:100500009EE190938900809388001092850010925C
:100510008400EFE6F0E080818260808308951F927E
:100520000F920FB60F9211242F933F934F935F9327
:100530006F937F938F939F93AF93BF93EF93FF93AB
:1005400022E042E051E060E083E290E02BDE8F3F6A
:1005500049F180919D01816480939D011092A501D4
:100560001092A4011092A9011092A8011092970173
:1005700080919D01806280939D0182E080930101C2
:1005800081E080930001189905C0809194018F5FEC
:1005900080939401809102018F7D8093020184DE1B
:1005A00083E043DE20E042E051E062E083E290E05D
:1005B000F9DD811110C08091A301843620F480916F
:1005C000A3018F5F01C084E68093A30180919D0108
:1005D000806280939D0121E042E051E061E083E28E
:1005E00090E0E0DD811110C08091A301833320F001
:1005F0008091A301815001C082E38093A301809187
:100600009D01806280939D01FF91EF91BF91AF9119
:100610009F918F917F916F915F914F913F912F911A
:100620000F900FBE0F901F9018951F920F920FB64C
:100630000F9211242F933F934F935F936F937F9368
:100640008F939F93AF93BF93CF93DF93EF93FF93DA
:1006500023E042E051E066E089E290E0A3DDD82F9C
:1006600024E042E051E067E089E290E09BDDC82FA2
:10067000D11105C080910101811101C0F3DDC111CB
:1006800005C080910001811101C0ECDDFF91EF9167
:10069000DF91CF91BF91AF919F918F917F916F919A
:1006A0005F914F913F912F910F900FBE0F901F9030
:1006B000189580919401823031F48091020180621A
:1006C00080930201F1DD1092940108958091AA01B6
:1006D000833051F48091A8019091A90101969093E3
:1006E000A9018093A80116C08091AA01823091F4DB
:1006F0008091A6019091A70101969093A701809304
:10070000A6018091A4019091A50101969093A50165
:100710008093A401499B09C080919B0190919C0109
:10072000019690939C0180939B01809199019091F7
:100730009A01019690939A01809399018091980172
:100740008B3018F010929801E1DD80919701843090
:1007500048F11092970180919D0180FD04C0809125
:100760009D0181FF1FC080919D0186FF04C0809183
:100770009D018F7B03C080919D018E7F80939D01A1
:1007800080919D0187FF04C080919D018F7703C0F8
:1007900080919D018D7F80939D0180919D0180625C
:1007A00080939D01809195019091960180319E40AA
:1007B00048F480919501909196010196909396014D
:1007C0008093950180910101882329F08091010196
:1007D00081508093010180910001882329F080914C
:1007E0000001815080930001809198018F5F809378
:1007F0009801809197018F5F80939701A895089544
:100800001F920F920FB60F9211242F933F934F9385
:100810005F936F937F938F939F93AF93BF93EF9368
:10082000FF9354DF809193018F5F809393018091B8
:1008300092018F5F8093920180919301823018F032
:100840001092930136DF80919201853010F0109262
:100850009201FF91EF91BF91AF919F918F917F9105
:100860006F915F914F913F912F910F900FBE0F901D
:100870001F901895CF93DF93CDB7DEB765970FB66E
:10088000F894DEBF0FBECDBF0FB6F894A895809147
:100890006000886180936000109260000FBEF89441
:1008A0002FEF80E792E0215080409040E1F700C0B8
:1008B0000000F7DDBCDDEFEFFDE329E4E150F0409F
:1008C0002040E1F700C000009FE088E10FB6F894F7
:1008D000A895809360000FBE90936000F5DC16DD54
:1008E00007DE81E1B82E8E010F5F1F4F9DE0C92EFC
:1008F000D12CF8947CDDF9DC789439DD8091950178
:100900009091960180319E4028F0109296011092AD
:100910009501CFDC80919D0185FFBAC080919D013A
:100920008F7D80939D01F8012B2D11922A95E9F777
:100930001A8A1B8A1C8A1D8A80919F01813049F581
:100940008091A2014AE0BE016E5E7F4F90E06ED2C0
:10095000BE016E5E7F4FC80157D263E471E0C801EB
:1009600053D265E471E0C8014FD28091A3014AE0FF
:10097000BE016E5E7F4F90E059D2BE016E5E7F4F2A
:10098000C80142D263E471E0C8013ED2E12CF12CEF
:1009900010C080919E014AE0BE016E5E7F4F90E0E4
:1009A00045D264E671E0C8012FD2BE016E5E7F4F72
:1009B000EBCFF80101900020E9F73197E01BF10B34
:1009C000C6018E1B9F0BE816F90640F466E571E040
:1009D000C8011AD28FEFE81AF80AEBCF8091AA016A
:1009E000823039F0833041F0813049F460E671E0C3
:1009F00008C06CE571E005C068E571E002C064E51F
:100A000071E0C80101D260E081E06AD060E080E07E
:100A1000FBD0C801D6D0F8012B2D11922A95E9F709
:100A20004B9902C04C9B03C069E471E002C066E5CB
:100A300071E0C801E9D1499B03C06BE471E002C0D9
:100A400066E571E0C801E0D1489B03C06DE471E048
:100A500002C066E571E0C801D7D180919D0181FF98
:100A600003C061E771E002C06FE471E0C801CCD15E
:100A700080919D0180FF03C06BE671E002C062E5DA
:100A800071E0C801C1D161E080E0BED0C80199D059
:100A900088952FCF87B1807F87B92C9A2B9800C07B
:100AA00000C02D9A00C000C086B18295807F00C032
:100AB00000C02D9892E09A95F1F700C02D9A00C0E1
:100AC00000C096B100C000C02D9892E09A95F1F751
:100AD00000C087FDE6CF2C9887B18F6087B9089555
:100AE000282F22952F708F70611102C02B9801C0A2
:100AF0002B9A00C000C02D9A98B1907F922B98B984
:100B000092E09A95F1F700C02D9892E09A95F1F74E
:100B100000C02D9A98B1907F892B88B982E08A9580
:100B2000F1F700C02D9892E09A95F1F700C0B2CF8E
:100B3000EF92FF921F93CF93DF931F92CDB7DEB753
:100B4000EFE5FAEE3197F1F700C0000097B19F6032
:100B500097B9259A239A249A98B1907F98B92D989D
:100B60002C982B9800C000002D9A419AF2E0FA953B
:100B7000F1F700C02D9892E09A95F1F700C08983B3
:100B800089DF60E089818C60ABDF60E088E2A8DF0C
:100B900060E080E4A5DF83E0E82E81E0F82E10E439
:100BA0001E0D61E0F70181917F019ADF1E11F9CFDF
:100BB00060E080E80F90DF91CF911F91FF90EF9060
:100BC0008FCF0F931F93CF93DF93EC0188818823FE
:100BD000B1F0853271F48E010F5F1F4F8981805310
:100BE00061E0883020F085E27BDF61E0898178DF99
:100BF00003C061E075DF8E01E8012196E7CFDF9148
:100C0000CF911F910F910895843170F4623031F0CB
:100C1000633031F0613029F4806403C08C5E01C020
:100C20008C5A60E080685CCF089570D088F09F5740
:100C300090F0B92F9927B751A0F0D1F0660F771F28
:100C4000881F991F1AF0BA95C9F712C0B13081F008
:100C500077D0B1E0089574C0672F782F8827B85FE8
:100C600039F0B93FCCF3869577956795B395D9F769
:100C70003EF490958095709561957F4F8F4F9F4F73
:100C80000895E89409C097FB3EF49095809570957F
:100C900061957F4F8F4F9F4F9923A9F0F92F96E9C8
:100CA000BB279395F695879577956795B795F1113D
:100CB000F8CFFAF4BB0F11F460FF1BC06F5F7F4FDA
:100CC0008F4F9F4F16C0882311F096E911C07723EC
:100CD00021F09EE8872F762F05C0662371F096E8F5
:100CE000862F70E060E02AF09A95660F771F881FC4
:100CF000DAF7880F9695879597F9089557FD9058DC
:100D0000440F551F59F05F3F71F04795880F97FBCF
:100D1000991F61F09F3F79F0879508951216130689
:100D20001406551FF2CF4695F1DF08C016161706B8
:100D30001806991FF1CF86957105610508940895ED
:100D4000E894BB2766277727CB0197F90895DEDF64
:100D5000E0F09E37D8F09639B8F49E3848F4672F03
:100D6000782F8827985FF9CF869577956795939523
:100D70009539D0F3B62FB1706B0F711D811D20F422
:100D8000879577956795939502C01CC0DACF882325
:100D900071F4772321F09850872B762F07C06623B4
:100DA00011F499270DC09051862B70E060E02AF075
:100DB0009A95660F771F881FDAF7880F96958795A3
:100DC00097F908959F3F31F0915020F487957795DA
:100DD0006795B795880F911D9695879597F9089512
:100DE000AA1BBB1B51E107C0AA1FBB1FA617B70751
:100DF00010F0A61BB70B881F991F5A95A9F780956D
:100E00009095BC01CD010895FB01DC010D900020FF
:100E1000E9F7119701900D920020E1F70895FB0189
:100E2000DC0101900D920020E1F70895BB274A30C4
:100E300031F4992322F4BDE2909581959F4F01C032
:100E4000BB27FB015527AA27880F991FAA1FA417A4
:100E500010F0A41B83955051B9F7A05DAA3308F098
:100E6000A95DA193009779F7B111B1931192CB01CC
:100E700000C0DC01FC01672F71917723E1F7329705
:100E800004C07C916D9370836291AE17BF07C8F365
:100E90000895F999FECF92BD81BDF89A992780B542
:100EA0000895262FF999FECF92BD81BDF89A01973A
:100EB00000B4021639F01FBA20BD0FB6F894FA9AA2
:0A0EC000F99A0FBE0895F894FFCFD1
:100ECA0001021B0000000000000000040E150404CB
:100EDA000404040404040404150E040A15110A0483
:100EEA000000000305090B0B1818001F0E0E04045E
:100EFA0004040401010505151515000E11111F1F23
:100F0A001F1F002500203A20004C0056004D0020EB
:100F1A00202020202020200020474F0020494E007A
:100F2A004F555400455252203A200020444F4F5208
:100F3A0000204D4F54494F4E0056455253494F4E8B
:100F4A003A200048692042617468726F6F6D203AD6
:020F5A0029006C
:00000001FF
