:1000000019C033C032C0BCC230C044C32EC02DC0E2
:100010002CC02BC02AC02CC428C027C026C025C095
:1000200024C023C022C021C020C01FC01EC01DC0CC
:100030001CC01BC011241FBECFEFD4E0DEBFCDBF5C
:1000400011E0A0E0B1E0EAE1F0E102C005900D921C
:10005000AA37B107D9F721E0AAE7B1E001C01D92A4
:10006000A339B207E1F73ED4D6C7CACFCF92DF9209
:10007000EF92FF920F931F93CF93DF9300D000D0A6
:100080001F92CDB7DEB7FC014D9B7FC0559A4D98AE
:100090008FE19EE40197F1F700C00000559899E2C6
:1000A00007C0A2E0AA95F1F700C0915009F46FC013
:1000B0004D99F7CF96E507C0B2E0BA95F1F700C0C9
:1000C000915009F466C04D9BF7CF96E507C032E02A
:1000D0003A95F1F700C0915009F45DC04D99F7CF02
:1000E0009E012F5F3F4F85E0D9011D928A95E9F768
:1000F000D901AE014A5F5F4F22C032E03A95F1F775
:1001000000C0915011F449C098E34D9BF6CF90E5A3
:100110009A95F1F7220F4D9908C00BC032E03A953D
:10012000F1F700C0915011F43AC09EE24D99F6CF1C
:100130002160815049F72D934A175B0719F088E039
:1001400020E0E2CFE980F12C0A8110E0AB81B0E041
:100150004C8150E09701200F311F2A0F3B1F240FC5
:10016000351F3327CD80D12C2C153D05D1F4FE2C25
:10017000EE240E0D1F1D11830083BA2FAA274A0FEC
:100180005B1FDB014D935C930DC081E00BC082E0EF
:1001900009C083E007C084E005C085E003C086E0B5
:1001A00001C087E00F900F900F900F900F90DF919C
:1001B000CF911F910F91FF90EF90DF90CF90089516
:1001C000FA01DC013C9181E090E002C0880F991FA8
:1001D0006A95E2F78323608170E0022E02C0759574
:1001E00067950A94E2F761707727482F50E064170B
:1001F0007507E9F0882369F0908141E050E0BA0189
:1002000002C0660F771F2A95E2F79B01292B2083F6
:100210000895908141E050E0DA0102C0AA0FBB1FAF
:100220002A95E2F79D0120952923208308958FEFD9
:100230000895599A10928401109283010895599853
:1002400008958091020185FF03C05B985C9A089530
:100250005B9A5C9A08955B985C980895CF9390910F
:1002600092019817B9F0C82F823021F4EADF589A2A
:10027000E6DF09C0833019F4E4DF589804C0813008
:1002800011F4E9DF5898C093920180918501806252
:1002900080938501CF910895809185018268809334
:1002A000850110928D0110928C0110929101109293
:1002B000900110927F018091850180628093850179
:1002C000189B03C083E0CADF089510928F0110923B
:1002D0008E0110928D0110928C0182E0BFDF089593
:1002E0004B9901C04C99ADDF089580E014D560E0D2
:1002F00081E0ACD48091850180628093850108956E
:1003000080E090E06ED680938B0180918B018233E8
:1003100020F080918B01853618F08BE480938B015F
:10032000089580918101909182018D32914048F031
:1003300060918B0180E090E05CD610928201109277
:1003400081010895CF93DF9300D0CDB7DEB768E881
:1003500071E0CE0101968ADE873029F468E871E009
:10036000CE01019683DE882329F0109287018093C5
:10037000860116C081E08093870129813A81ADEC26
:10038000BCECE5D596958795969587959695879536
:10039000BC0180E090E02CD591D5FED460938A0119
:1003A000809185018062809385010F900F90DF918D
:1003B000CF910895499B1CC080918701813099F5A8
:1003C00080918301909184018A35910560F180913B
:1003D0008B0120918A0130E090E005978217930706
:1003E00014F12DDF809185018062809385011BC00F
:1003F000809187018130B9F480918B0190918A01BD
:10040000981788F08091830190918401803B9440FB
:1004100020F080919201813031F00BDF80918501D5
:100420008062809385018091830190918401803B5B
:10043000944030F004DF80918501806280938501D3
:10044000089580919201833089F4189B03C020EDB8
:1004500032E002C024EB30E0809190019091910154
:100460008217930780F081E0F9DE08958091920170
:10047000823049F480918C0190918D0181319E40B0
:1004800010F081E0EBDE08950F931F93CF93DF937D
:10049000CDB7DEB765970FB6F894DEBF0FBECDBF00
:1004A0008E010F5F1F4F81E1F80111928A95E9F7E4
:1004B00060E080E01FD48BE691E0F1D34AE0BE011A
:1004C0006E5E7F4F84E090E059D58AE0E3E4F1E08E
:1004D000D80101900D928A95E1F7BE016E5E7F4FC3
:1004E000C80141D561E080E005D4C801D8D3659644
:1004F0000FB6F894DEBF0FBECDBFDF91CF911F9135
:100500000F9108958AB18F618AB9569857982098AB
:1005100022982198EADEE8E6F0E080818560808319
:10052000EBE6F0E0808187608083EDE6F0E080819B
:10053000806C80831BBA189B05C080910201846087
:100540008093020180B7806880BF83B7816083BFDA
:100550000895E1E8F0E080818D6080831092800052
:1005600084E89EE190938900809388001092850032
:1005700010928400EFE6F0E080818260808308952D
:100580001F920F920FB60F9211242F933F934F9308
:100590005F936F937F938F939F93AF93BF93EF93EB
:1005A000FF9322E042E051E060E083E290E008DE69
:1005B0008F3F49F18091850181648093850110927C
:1005C0008D0110928C011092910110929001109265
:1005D0007F018091850180628093850182E0809314
:1005E000010181E080930001189905C080917C0190
:1005F0008F5F80937C01809102018F7D8093020147
:100600006FDE83E02BDE20E042E051E062E083E237
:1006100090E0D6DD811112C080918B01843630F4D8
:1006200080918B018F5F80938B0103C084E6809360
:100630008B018091850180628093850121E042E0F9
:1006400051E061E083E290E0BBDD811112C0809156
:100650008B01833330F080918B01815080938B012B
:1006600003C082E380938B01809185018062809337
:100670008501FF91EF91BF91AF919F918F917F91F4
:100680006F915F914F913F912F910F900FBE0F90FF
:100690001F9018951F920F920FB60F9211242F934F
:1006A0003F934F935F936F937F938F939F93AF93FA
:1006B000BF93CF93DF93EF93FF9323E042E051E0AA
:1006C00066E089E290E07CDDD82F24E042E051E052
:1006D00067E089E290E074DDC82FD11105C08091F8
:1006E0000101811101C0D8DDC11105C08091000157
:1006F000811101C0D1DDFF91EF91DF91CF91BF91C9
:10070000AF919F918F917F916F915F914F913F91A9
:100710002F910F900FBE0F901F90189580917C0124
:10072000823031F480910201806280930201D8DD31
:1007300010927C01089580919201833051F4809150
:100740009001909191010196909391018093900175
:1007500016C080919201823091F480918E01909127
:100760008F01019690938F0180938E0180918C016F
:1007700090918D01019690938D0180938C01499BFE
:1007800009C0809183019091840101969093840126
:1007900080938301809181019091820101969093D1
:1007A000820180938101809180018B3018F010923A
:1007B0008001C8DD80917F01843068F110927F0153
:1007C0008091850180FD04C08091850181FF23C057
:1007D0008091850186FF06C0809185018F7B809383
:1007E000850105C0809185018E7F80938501809170
:1007F0008501882334F4809185018F77809385016A
:1008000005C0809185018D7F809385018091850150
:1008100080628093850180917D0190917E0180317D
:100820009E4048F480917D0190917E0101969093C5
:100830007E0180937D0180910101882329F08091C0
:10084000010181508093010180910001882329F0EA
:1008500080910001815080930001809180018F5F21
:100860008093800180917F018F5F80937F01089545
:100870001F920F920FB60F9211242F933F934F9315
:100880005F936F937F938F939F93AF93BF93EF93F8
:10089000FF9351DF80917B018F5F80937B0180917B
:1008A0007A018F5F80937A0180917B01823018F00A
:1008B00010927B0133DF80917A01853010F0109225
:1008C0007A01FF91EF91BF91AF919F918F917F91AD
:1008D0006F915F914F913F912F910F900FBE0F90AD
:1008E0001F901895CF93DF93CDB7DEB765970FB6FE
:1008F000F894DEBF0FBECDBF0FB6F894A8958091D7
:100900006000886180936000109260000FBEF894D0
:100910002FEF80E792E0215080409040E1F700C047
:100920000000F0DDB1DDEFEFFDE329E4E150F04040
:100930002040E1F700C000009FE088E10FB6F89486
:10094000A895809360000FBE90936000D9DCFADC1C
:1009500000DE8E010F5F1F4F5E0182E1A80EB11C09
:100960000F2EFDE0CF2ED12CF02D6894EE24E5F86B
:10097000F12C0F2EFDE44F2E512CF02D0F2EF6E50D
:100980002F2E312CF02D0F2EFCE46F2E712CF02D1C
:10099000F89457DDC6DC78940DDD80917D0190914F
:1009A0007E0180319E4028F010927E0110927D01E0
:1009B0009CDC8091850185FF20C1809185018F7D20
:1009C0008093850181E1F80111928A95E9F784E02D
:1009D000F50111928A95E9F780918701813099F5A7
:1009E00080918A014AE0B50190E0C8D2B501C80102
:1009F000BAD2F80101900020E9F731970F2EF5E205
:100A00008F2E912CF02D91828082F8010190002090
:100A1000E9F7319780E29AE391838083F382E2825F
:100A200080918B014AE0B50190E0A8D2B501C801E0
:100A30009AD2F80101900020E9F7319791828082E3
:100A400080E090E01BC0809186014AE0B50190E013
:100A500095D2D8010D900020E9F7119787E0E6E5DF
:100A6000F1E001900D928A95E1F7B501C8017BD2C2
:100A7000E7CFE00FF11FF182E0820196F8010190CB
:100A80000020E9F73197E01BF10B96012E1B3F0B7D
:100A90008217930770F380919201823079F083304E
:100AA000C1F0813009F5E00FF11F8FE495E59183E6
:100AB000808384E590E0938382831EC0E00FF11F62
:100AC00080E299E4918380838EE490E09383828333
:100AD00013C0E00FF11F80E297E4918380838FE4DD
:100AE00090E09383828308C0E00FF11F80E290E2E0
:100AF00091838083F382E28260E081E0A7D060E0AE
:100B000080E0F8D0C801CBD081E1F80111928A953C
:100B1000E9F74B9902C04C9B08C0F80101900020F6
:100B2000E9F731977182608207C0F80101900020D7
:100B3000E9F73197F182E082499B08C0F801019002
:100B40000020E9F731973182208207C0F801019037
:100B50000020E9F73197F182E082489B08C0F80154
:100B600001900020E9F731975182408207C0F801D7
:100B700001900020E9F73197F182E08280918501B0
:100B800081FF0DC0D8010D900020E9F7119788E092
:100B9000EDE5F1E001900D928A95E1F70CC0D801E6
:100BA0000D900020E9F7119789E0EDE4F1E0019064
:100BB0000D928A95E1F78091850180FF0DC0D801E3
:100BC0000D900020E9F7119786E0E5E6F1E001904D
:100BD0000D928A95E1F70CC0D8010D900020E9F73D
:100BE000119786E0E0E5F1E001900D928A95E1F73A
:100BF00061E080E07FD0C80152D08895A895C8CE2A
:100C000087B1807F87B92C9A2B9800C000C02D9A9D
:100C100000C000C086B18295807F00C000C02D98C2
:100C200092E09A95F1F700C02D9A00C000C096B1ED
:100C300000C000C02D9892E09A95F1F700C088237B
:100C400034F32C9887B18F6087B90895282F2295A7
:100C50002F708F70611102C02B9801C02B9A00C0B9
:100C600000C02D9A98B1907F922B98B992E09A95F6
:100C7000F1F700C02D9892E09A95F1F700C02D9AF7
:100C800098B1907F892B88B982E08A95F1F700C0EE
:100C90002D9892E09A95F1F700C0B2DF08950F9376
:100CA0001F93CF93DF938C01FC0180818823E9F0AF
:100CB000853291F4E8012196F801818180538830D2
:100CC00018F461E0C3DF0BC061E085E2BFDF61E0E3
:100CD000F8018181BBDF03C061E0B8DFE8018E016C
:100CE0000F5F1F4F89818111E3CFDF91CF911F915A
:100CF0000F910895843170F4623031F0633031F037
:100D0000613029F4806403C08C5E01C08C5A60E0BD
:100D100080689CDF08950F931F93CF93DF93C82FB4
:100D20008FE59AEE0197F1F700C0000087B18F6060
:100D300087B9259A239A249A88B1807F88B92D98FB
:100D40002C982B9800C000002D9A419A92E09A9519
:100D5000F1F700C02D9882E08A95F1F700C050DFCE
:100D600060E08C2F8C6072DF60E088E26FDF60E013
:100D700080E46CDFC3E0D1E003E411E061E089913D
:100D800065DFC017D107D1F760E080E0B3DFDF9106
:100D9000CF911F910F91089570D088F09F5790F0D8
:100DA000B92F9927B751A0F0D1F0660F771F881F90
:100DB000991F1AF0BA95C9F712C0B13081F077D0F7
:100DC000B1E0089574C0672F782F8827B85F39F095
:100DD000B93FCCF3869577956795B395D9F73EF4EF
:100DE00090958095709561957F4F8F4F9F4F089597
:100DF000E89409C097FB3EF49095809570956195B5
:100E00007F4F8F4F9F4F9923A9F0F92F96E9BB276A
:100E10009395F695879577956795B795F111F8CFE6
:100E2000FAF4BB0F11F460FF1BC06F5F7F4F8F4F51
:100E30009F4F16C0882311F096E911C0772321F047
:100E40009EE8872F762F05C0662371F096E8862FDF
:100E500070E060E02AF09A95660F771F881FDAF736
:100E6000880F9695879597F9089557FD9058440FE8
:100E7000551F59F05F3F71F04795880F97FB991FF9
:100E800061F09F3F79F087950895121613061406B6
:100E9000551FF2CF4695F1DF08C016161706180643
:100EA000991FF1CF86957105610508940895E8941E
:100EB000BB2766277727CB0197F90895DEDFE0F09F
:100EC0009E37D8F09639B8F49E3848F4672F782FBB
:100ED0008827985FF9CF869577956795939595398B
:100EE000D0F3B62FB1706B0F711D811D20F4879563
:100EF00077956795939502C01CC0DACF882371F46B
:100F0000772321F09850872B762F07C0662311F4A2
:100F100099270DC09051862B70E060E02AF09A95D9
:100F2000660F771F881FDAF7880F9695879597F9D0
:100F300008959F3F31F0915020F4879577956795FC
:100F4000B795880F911D9695879597F90895A29F5B
:100F5000B001B39FC001A39F01D0B29F700D811D4E
:100F60001124911D0895FB01DC010D900020E9F78B
:100F7000119701900D920020E1F70895BB274A30A8
:100F800031F4992322F4BDE2909581959F4F01C0E1
:100F9000BB27FB015527AA27880F991FAA1FA41753
:100FA00010F0A41B83955051B9F7A05DAA3308F047
:100FB000A95DA193009779F7B111B1931192CB017B
:100FC00000C0DC01FC01672F71917723E1F73297B4
:100FD00004C07C916D9370836291AE17BF07C8F314
:100FE0000895F999FECF92BD81BDF89A992780B5F1
:100FF0000895262FF999FECF92BD81BDF89A0197E9
:1010000000B4021639F01FBA20BD0FB6F894FA9A50
:0A101000F99A0FBE0895F894FFCF7F
:10101A0001021B0000000000000000040E15040479
:10102A000404040404040404150E040A15110A0431
:10103A000000000305090B0B1818001F0E0E04040C
:10104A0004040401010505151515000E11111F1FD1
:10105A001F1F0056455253494F4E3A200020202068
:10106A00202020202000455252203A2000204D4FB7
:10107A0054494F4E0020444F4F5200486920426164
:0A108A007468726F6F6D203A290040
:00000001FF
