:100000000C9408060C9425060C9425060C940112F9
:100010000C94DD110C94B9110C9425060C94250652
:100020000C9425060C9425060C9425060C94251298
:100030000C9425060C9425060C9425060C94250694
:100040000C9425060C9425060C946E130C949913AD
:100050000C9425060C9425060C9425060C94250674
:100060000C9425060C9425069F12A112A812AA1220
:10007000AC12AE12B012B21257656C636F6D652090
:10008000746F2042617468726F6F6D20436F6E747D
:10009000726F6C6C6572204D43552C20636F6D6DD3
:1000A000616E6473203A200A2048454C502020207D
:1000B0002020202020202020202020202020202040
:1000C00020203A2048656C702067756964652C2093
:1000D000776869636820796F752061726520726541
:1000E0006164696E67206E6F770A205645525349E6
:1000F0004F4E2020202020202020202020202020A3
:10010000202020203A2076657273696F6E206F661A
:100110002074686520736F6674776172650A205475
:1001200020202020202020202020202020202020CF
:1001300020202020202020203A2063757272656ED6
:10014000742074656D70657261747572650A2048FB
:10015000202020202020202020202020202020209F
:1001600020202020202020203A2063757272656EA6
:10017000742068756D69646974790A205550544912
:100180004D4520202020202020202020202020201D
:1001900020202020203A206461797320616E642041
:1001A000686F757273206F6620776F726B696E6708
:1001B0002074696D652073696E6365206C6173746A
:1001C0002073746172740A20524553544152542072
:1001D0006F7220524553455420202020202020209B
:1001E000203A20636F6D6D616E6420746F207265BC
:1001F0007374617274204D4355200A20424F4F544E
:100200004C4F4144455220202020202020202020F7
:1002100020202020203A2072756E20626F6F746C4F
:100220006F6164657220746F2075706772616465B8
:1002300020736F667477617265200A2054455354A9
:1002400020202020202020202020202020202020AE
:1002500020202020203A207465737420636F6E7410
:10026000726F6C6C6572200A20504152414D5320D0
:10027000202020202020202020202020202020207E
:1002800020203A207072696E7420706172616D6511
:1002900074657273200A20482D56454E542D4F4EDA
:1002A0003D38302020202020202020202020202009
:1002B0003A207365742068756D6964697479207774
:1002C00068656E2076656E74696C6174696F6E2006
:1002D000697320737461727465642C203830252032
:1002E00062792064656661756C742C206D6178207C
:1002F000313030250A20482D56454E542D4F464664
:100300003D37352020202020202020202020203A8A
:10031000207365742068756D6964697479207768E5
:10032000656E2076656E74696C6174696F6E2069A4
:10033000732073746F707065642C203735252062CC
:10034000792064656661756C740A2056454E542D9B
:10035000454E41424C45443D312020202020202064
:10036000202020203A20656E61626C652076656EE3
:1003700074696C6174696F6E2C20656E61626C6566
:100380006420312C2064697361626C6564203020C4
:100390002E44656661756C7420697320310A20569D
:1003A000454E542D4D41582D54494D453D33302037
:1003B00020202020202020203A207365742076659C
:1003C0006E74696C6174696F6E206D6178207469F8
:1003D0006D6520696E206D696E757465730A2056AF
:1003E000454E542D4D494E2D54494D453D3220200A
:1003F00020202020202020203A207365742076655C
:100400006E74696C6174696F6E206D696E207469B9
:100410006D6520696E206D696E757465730A20566E
:10042000454E542D4D494E2D54454D503D313820AB
:1004300020202020202020203A20736574206D6920
:100440006E696D616C2074656D7065726174757232
:1004500065207768656E2076656E74696C61746975
:100460006F6E2063616E20626520737461727465C3
:10047000640A2056454E542D41465445523D302085
:100480002020202020202020202020203A207275AB
:100490006E2076656E74696C6174696F6E206F6E24
:1004A0006C792069662074686520726F6F6D2069B1
:1004B0007320656D7074792E2031202D207965733D
:1004C0002C2030202D206E6F0A20494E562D57418A
:1004D00049542D54494D453D3130202020202020C5
:1004E0002020203A20736574207761697420746934
:1004F0006D6520696E206D696E757465732077680F
:10050000656E20636F6E74726F6C6C6572206775B8
:10051000657373207468617420736F6D65626F64B6
:100520007920696E20776974686F757420616E79BF
:10053000207369676E616C2066726F6D2073656EE3
:10054000736F72730A20534F4D45424F44592D49E2
:100550004E2D574149542D54494D453D3430203A94
:100560002073657420776169742074696D652069F2
:100570006E206D696E75746573207768656E207383
:100580006F6D65626F647920696E20616C72656160
:10059000647920616E64206E6F20616E79207369CA
:1005A000676E616C2066726F6D2073656E736F721B
:1005B000730A204D555349432D454E41424C454405
:1005C0003D31202020202020202020203A20656E50
:1005D00061626C65206D757369632C20646566616A
:1005E000756C7420697320312028456E61626C65DA
:1005F0006429200A204C494748542D4D41494E2D2D
:10060000454E41424C45443D3120202020203A2097
:10061000656E61626C65207072696D617279206CC3
:10062000696768742C2064656661756C74206973F1
:1006300020312028456E61626C656429200A204CB7
:10064000494748542D5345432D454E41424C45445E
:100650003D312020202020203A20656E61626C65AB
:10066000207365636F6E64617279206C696768746A
:100670002C2064656661756C7420697320312028B4
:10068000456E61626C656429200A204C49474854D4
:100690002D52454C41582D454E41424C45443D312B
:1006A000202020203A20656E61626C652072656CA6
:1006B0006178206C696768742C2064656661756C6C
:1006C0007420697320312028456E61626C6564294D
:1006D000200A205345542D484947482D50494E2D56
:1006E0004C45563D35202020202020203A2073659F
:1006F000742048494748206C6F676963206C6576B1
:10070000656C20666F72206F7574707574207069E7
:100710006E2077697468206E756D626572203A206C
:10072000302D370A205345542D4C4F572D50494EEC
:100730002D4C45563D3320202020202020203A20DB
:100740007365742048494748206C6F676963206C63
:100750006576656C20666F72206F75747075742095
:1007600070696E2077697468206E756D626572209D
:100770003A20302D370A2050494E2D4C4556454CD5
:100780002020202020202020202020202020202069
:100790003A207072696E742070696E206C6F6769A0
:1007A00063206C6576656C20666F72206F7574705F
:1007B00075742070696E730A204F55545055542D2E
:1007C0005354415445202020202020202020202048
:1007D00020203A207072696E74206F757470757481
:1007E000207374617465730A205345542D50494E2B
:1007F0002D4F4E3D32202020202020202020202060
:1008000020203A207365742070696E20746F204F29
:100810004E207374617465207573696E6720697406
:100820007320696E6465780A205345542D50494EF3
:100830002D4F46463D332020202020202020202000
:1008400020203A207365742070696E20746F204FE9
:100850004646207374617465207573696E672069FC
:10086000747320696E6465780A200A204F555450CD
:1008700055542050494E533A204D61696E204C69C1
:1008800067687420302C205365636F6E64617279E1
:10089000204C6967687420312C2056656E74696C31
:1008A0006174696F6E20322C204D7573696320333B
:1008B0000A202D2D2D2D2D2D2D2D2D2D2D2D2D2D98
:1008C0002D2D2D2D2D2D2D2D2D2D2D2D2D2D2D2D58
:1008D0002D2D2D2D2D2D2D2D2D2D2D2D2D2D2D2D48
:1008E0002D2D2D2D2D2D2D2D2D2D2D2D2D2D2D2D38
:1008F0002D2D2D2D2D2D2D2D2D2D2D2D2D2D2D2D28
:100900002D2D2D2D2D2D2D2D2D2D2D0A20004D750C
:1009100073696320746573742E2E2E0A0056656EFB
:1009200074696C6174696F6E20746573742E2E2EF9
:100930000A004D61696E20616E64207365636F6E9D
:1009400064617279206C6967687420746573742EB1
:100950002E2E0A005365636F6E64617279206C6994
:1009600067687420746573742E2E2E0A004D6169B9
:100970006E206C6967687420746573742E2E2E0A5D
:1009800000456E642074657374696E670A00537461
:100990006172742074657374696E670A005B526FCC
:1009A0006F6D206D6F64655D3A20496E7665737476
:1009B00069676174696F6E2E2E2E0A005B526F6F2D
:1009C0006D206D6F64655D3A20536F6D65626F6475
:1009D0007920696E2074686520726F6F6D0A005B04
:1009E000526F6F6D206D6F64655D3A204E6F626F60
:1009F000647920696E2074686520726F6F6D0A00DB
:100A00005B4576656E745D3A204D6F74696F6E203C
:100A100064657465637465640A005B4576656E742D
:100A20005D3A20446F6F7220636C6F7365640A00D7
:100A30005B4576656E745D3A20446F6F72206F700F
:100A4000656E65640A005B53746174655D3A204F9E
:100A500075747075742025642073657420746F201C
:100A600025730A005B436F6D6D616E645D3A204DC6
:100A700075736963204F46460A005B436F6D6D6175
:100A80006E645D3A204D75736963204F4E0A005BBA
:100A900053746174655D3A2056656E74696C617457
:100AA000696F6E20646F6E650A005B5374617465D4
:100AB0005D3A2056656E74696C6174696F6E206270
:100AC0006C6F636B6564203A2063616E206E6F7497
:100AD0002064656372656173652068756D6964691A
:100AE00074792069737375650A005B436F6D6D617E
:100AF0006E645D3A2056656E74696C6174696F6EE0
:100B0000204F46460A005B436F6D6D616E645D3A2F
:100B10002056656E74696C6174696F6E204F4E0A61
:100B2000005B436F6D6D616E645D3A204C69676870
:100B300074204F46460A005B436F6D6D616E645DC5
:100B40003A204C69676874204F4E0A005B436F6D12
:100B50006D616E645D3A2052656C6178204D6F6402
:100B6000652044656163746976617465640A005B3D
:100B7000436F6D6D616E645D3A2052656C617820E3
:100B80004D6F6465204163746976617465640A0021
:100B9000557074696D653A2025642064617973200D
:100BA000616E6420256420686F7572730A00487551
:100BB0006D69646974792073656E736F72206572F4
:100BC000726F723A2025640A0054656D7065726117
:100BD000747572653A2025642E256420430A004806
:100BE000756D69646974793A2025642025250A00A9
:100BF00042617468726F6F6D20636F6E74726F6C98
:100C00006C657220697320737461727465640A0084
:100C100011241FBECFEFD8E0DEBFCDBF13E0A0E0B0
:100C2000B1E0EEEAFFE202C005900D92A031B107FB
:100C3000D9F723E0A0E1B3E001C01D92AC3FB207B9
:100C4000E1F70E9456120C94D5170C940000CF9235
:100C5000DF92EF92FF920F931F93CF93DF9300D019
:100C600000D01F92CDB7DEB77C01309B7BC0389A95
:100C700030988FED9EE20197F1F700C000003898A0
:100C800098E09A95F1F78EE2309B07C0A4E0AA9510
:100C9000F1F78150C9F782E068C086E5309907C056
:100CA000B4E0BA95F1F78150C9F783E05EC086E5FC
:100CB000309B07C0E4E0EA95F1F78150C9F784E082
:100CC00054C0FE01319685E0DF011D928A95E9F757
:100CD000AE014A5F5F4F88E090E028E3309907C09B
:100CE000B4E0BA95F1F72150C9F785E03EC02CE891
:100CF0002A95F1F7990F309B0BC02EE2309B07C06D
:100D000034E03A95F1F72150C9F786E02EC09160A2
:100D1000815019F791934E175F07E9F6098110E0AA
:100D2000AA81B0E0EB81F0E04C8150E098012A0FFD
:100D30003B1F2E0F3F1F240F351F3327CD80D12C93
:100D40002C153D0589F4102F00270A0F1B1FD70112
:100D50000D931C93FE2FEE274E0F5F1FFB01518357
:100D6000408303C081E001C087E00F900F900F9097
:100D70000F900F90DF91CF911F910F91FF90EF9007
:100D8000DF90CF900895FA01DC018C9190E002C0D1
:100D9000959587956A95E2F78170608170E0022EE3
:100DA00002C0759567950A94E2F761707727482F1E
:100DB000082E000C550B64177507C1F0308188238D
:100DC00051F081E090E001C0880F2A95EAF7832B6B
:100DD000808381E0089581E090E001C0880F2A952A
:100DE000EAF780958323808380E008958FEF08954C
:100DF000609106010C943D130F931F93CF93DF93E3
:100E0000C82F162F042F409106010E94DA12D82F06
:100E10000023C9F18823B9F11130C9F484E992E0C3
:100E20009F938F931F92CF9386E49AE09F938F9323
:100E300082E793E09F938F930E94C1148DB79EB772
:100E400008960FB6F8949EBF0FBE8DBF18C08FE9ED
:100E500092E09F938F931F92CF9386E49AE09F93A3
:100E60008F9382E793E09F938F930E94C1148DB775
:100E70009EB708960FB6F8949EBF0FBE8DBF82E74F
:100E800093E00E940C148D2FDF91CF911F910F9151
:100E900008958091020141E085FF09C060E080E093
:100EA0000E94FC0641E061E081E00C94FC0661E0F8
:100EB00080E00E94FC0680910401813021F441E031
:100EC00061E00E94FC0687E39BE00C9418140FB6C7
:100ED000F894A895809160008861809360001092DA
:100EE00060000FBE8EE899E00E9418148DE699E02C
:100EF0000E94181441E060E080E00E94FC062FEFA1
:100F00008EE994E2215080409040E1F700C000005B
:100F100041E061E080E00E94FC062FEF8EE994E260
:100F2000215080409040E1F700C0000041E060E0C7
:100F300080E00E94FC062FEF8EE994E22150804071
:100F40009040E1F700C0000041E061E080E00E94D5
:100F5000FC062FEF8EE994E2215080409040E1F7AB
:100F600000C0000041E060E080E00E94FC0684E5F3
:100F700099E00E94181441E060E081E00E94FC06C4
:100F80002FEF8EE994E2215080409040E1F700C0BD
:100F9000000041E061E081E00E94FC062FEF8EE955
:100FA00094E2215080409040E1F700C0000041E011
:100FB00060E081E00E94FC062FEF8EE994E2215070
:100FC00080409040E1F700C0000041E061E081E036
:100FD0000E94FC062FEF8EE994E221508040904061
:100FE000E1F700C0000041E060E081E00E94FC0603
:100FF00082E399E00E94181441E060E080E00E94E2
:10100000FC0641E060E081E00E94FC062FEF8EE9E3
:1010100094E2215080409040E1F700C0000041E0A0
:1010200061E080E00E94FC0641E061E081E00E9416
:10103000FC062FEF8EE994E2215080409040E1F7CA
:1010400000C0000041E060E080E00E94FC0641E05A
:1010500060E081E00E94FC062FEF8EE994E22150CF
:1010600080409040E1F700C0000041E061E080E096
:101070000E94FC0641E061E081E00E94FC062FEF47
:101080008EE994E2215080409040E1F700C00000DA
:1010900041E060E080E00E94FC0641E060E081E029
:1010A0000E94FC068DE199E00E94181441E060E086
:1010B00082E00E94FC062FEF8EE994E221508040EE
:1010C0009040E1F700C0000041E061E082E00E9452
:1010D000FC062FEF8AE197EB215080409040E1F72A
:1010E00000C0000041E060E082E00E94FC062FEFBB
:1010F0008AE197EB215080409040E1F700C000006A
:1011000041E061E082E00E94FC062FEF8AE197EB6C
:10111000215080409040E1F700C0000041E060E0D5
:1011200082E00E94FC068EE099E00E94181441E0E3
:1011300060E083E00E94FC062FEF8EE994E22150EC
:1011400080409040E1F700C0000041E061E083E0B2
:101150000E94FC062FEF8AE197EB215080409040DF
:10116000E1F700C0000041E060E083E00E94FC067F
:101170002FEF8AE197EB215080409040E1F700C0CB
:10118000000041E061E083E00E94FC062FEF8AE16D
:1011900097EB215080409040E1F700C0000041E013
:1011A00060E083E00E94FC0681E899E00E94181448
:1011B0009FE088E10FB6F894A895809360000FBE79
:1011C0009093600008958130B9F480916603813076
:1011D00019F582E00E94F80681111EC041E061E02D
:1011E00082E00E94FC0686E09BE00E9418141092A8
:1011F000610310926003089581110EC082E00E9485
:10120000F806882349F041E060E082E00E94FC0695
:101210008AEE9AE00C9418140895813011F40C941D
:10122000490781111CC0609106010E943D1388236B
:1012300029F081E29BE00E94181407C0609106012A
:1012400081E00E943D138111F4CF41E060E080E035
:101250000E94FC0641E060E081E00C94FC060895E9
:10126000813089F4809103018130E9F483E00E94A8
:10127000F806811118C041E061E083E00E94FC069D
:101280008AE79AE00EC081110EC083E00E94F80642
:10129000882349F041E060E083E00E94FC0684E698
:1012A0009AE00C9418140895CF93909170039817B6
:1012B00059F1C82F823041F48CEB99E00E94181448
:1012C0000E94490781E009C0833051F48DE999E01B
:1012D0000E9418140E94490780E00E94300910C043
:1012E000813071F48FED99E00E94181480E00E9423
:1012F0000D0980E00E94300984E69AE00E941814EB
:10130000C093700310925F03CF91089533990BC07F
:10131000809102018062809302010E9449078FE65A
:101320009BE00C9418140895809102018F7D8093A6
:1013300002010E9449078CE49BE00C9418148091F0
:101340005803823068F080917103813049F48091B4
:101350000401813029F480915C03886080935C03F0
:101360001092580308950F93FC019081621710F0BA
:10137000061720F4442319F0408301C0608381E004
:101380002081291301C080E00F91089590910601FA
:1013900080930601891739F0662329F0682F8DE0C4
:1013A00090E00C948C17089590915E032FEF280F16
:1013B0002A3F08F08AE080935E0380915E039817CD
:1013C00039F0662329F0682F81E090E00C948C17A7
:1013D000089590915D032FEF280F2A3F08F08AE0CF
:1013E00080935D0380915D03981739F0662329F09F
:1013F000682F80E090E00C948C170895909165031D
:10140000811101C08EE18093650380916503981777
:1014100039F0662329F0682F85E090E00C948C1752
:10142000089590916403811101C082E08093640368
:1014300080916403981739F0662329F0682F84E0BF
:1014400090E00C948C170895909163038F3108F00D
:1014500082E18093630380916303981739F06623D8
:1014600029F0682F83E090E00C948C1708959091F8
:101470006203823010F480936203809162039817B4
:1014800039F0662329F0682F82E090E00C948C17E5
:10149000089590916603823008F081E0809366039E
:1014A00080916603981739F0662329F0682F86E04B
:1014B00090E00C948C170895909168032EEC280FFF
:1014C000233308F080E580936803809168039817C0
:1014D00039F0662329F0682F88E090E00C948C178F
:1014E0000895909167032EEC280F233308F08BE4C6
:1014F0008093670380916703981739F0662329F07A
:10150000682F87E090E00C948C1708959091030168
:10151000823008F081E080930301809103019817E5
:1015200039F0662329F0682F89E090E00C948C173D
:10153000089590910501823008F081E080930501C3
:1015400080910501981739F0662329F0682F8CE007
:1015500090E00C948C17089590910401823008F06B
:1015600081E08093040180910401981739F066238B
:1015700029F0682F8BE090E00C948C1708959091DF
:101580007103823010F48093710380917103981776
:1015900039F0662329F0682F8AE090E00C948C17CC
:1015A00008950F9388E090E00E94841704E622E3F8
:1015B00040E5682F88E693E00E94B30987E090E059
:1015C0000E94841722E34BE4682F87E693E00E9491
:1015D000B309E7EFF3E014821082128211828FEFD9
:1015E00083830F91089585E090E00E94841760E066
:1015F0000E94FE0984E090E00E94841760E00E944F
:10160000110A83E090E00E94841760E00E94240A9F
:1016100082E090E00E94841760E00E94370A86E032
:1016200090E00E94841760E00C94490A80E090E00A
:101630000E94841760E00E94E90981E090E00E9426
:10164000841760E00C94D40989E090E00E9484172C
:1016500060E00C94860A8CE090E00E94841760E0C1
:101660000E94990A8BE090E00E94841760E00E943B
:10167000AC0A8AE090E00E94841760E00C94BF0AF4
:10168000339B05C08091020184608093020108951C
:10169000CF93DF9300D000D0CDB7DEB7F894BE0172
:1016A0006F5F7F4FCE0103960E94270678948823B0
:1016B00001F11092FA038093FB03E2E7F3E090E478
:1016C000DF011D929A95E9F71F928F938EEA9BE0B6
:1016D0009F938F93FF93EF930E94C11482E793E04F
:1016E0000E940C140F900F900F900F900F900F907E
:1016F00011C081E08093FA038B819C816AE070E0E5
:101700000E9427146093F70389819A819093F903CB
:101710008093F8030F900F900F900F90DF91CF916F
:101720000895CF9380915F0381115DC08091FA038A
:10173000813001F59091F703809168038917E0F4F7
:101740008091F8039091F9036AE070E00E942714F9
:1017500080916303861730F480916203882331F00F
:10176000813061F480917003813041F481E00E9406
:10177000E30804C0CFEF03C0C1E001C0C0E082E0D5
:101780000E94F806882379F1809164032091600318
:10179000309161034CE3849FC0011124281739075D
:1017A00050F0C13041F48FE89AE00E94181480E0B4
:1017B000CF910C94E30880916503209160033091F0
:1017C00061034CE3849FC00111242817390758F0A6
:1017D00080E00E94E30881E080935F038AEA9AE058
:1017E000CF910C941814CF91089580917003833099
:1017F00081F480915E0320916E0330916F034CE37E
:10180000849FC001112428173907A0F081E00C94AF
:10181000540980917003823069F480915D032091B6
:101820006A0330916B034CE3849FC001112482173B
:10183000930760F30895109212031092100380E44E
:10184000E3E1F3E0DF011D928A95E9F70895AF9295
:10185000BF92CF92DF92EF92FF920F931F93CF939D
:10186000DF93CDB7DEB7C254D1090FB6F894DEBF0F
:101870000FBECDBF1BA21AA22FE1FE01B496DF015D
:10188000322F1D923A95E9F71A821982B197DF013A
:101890001D922A95E9F7FC0141E0F12C20E090E04F
:1018A000319131111BC09E012F5F3F4F6901F9013A
:1018B00001900020E9F731975F01A21AB30A8E0167
:1018C0000E5D1F4FB80187E091E00E945F14892BE5
:1018D000D1F488E790E00E94181455C3413419F3FD
:1018E0003D3369F0F11018C3903258F4A2E2B0E031
:1018F000AC0FBD1FA90FB11D3C939F5F02C0FF2419
:10190000F3944F5FCDCFB8018CE091E00E945F145B
:10191000892BE1F487E191E00E940C148AE0A895FC
:101920003FEF4EE954E2315040405040E1F700C0F3
:1019300000008150A1F798E088E10FB6F894A895CF
:10194000809360000FBE90936000FFCFB80188E5E0
:1019500091E00E945F14892B81F48091F8039091AB
:10196000F9036AE070E00E9427149F938F93772712
:101970007F936F9389EC9BE048C0B80187E391E0C7
:101980000E945F14892BC9F48091F7031F928F93F3
:101990008FED9BE09F938F9382E793E09F938F93CC
:1019A0000E94C11482E793E00E940C140F900F90E4
:1019B0000F900F900F900F90E6C2B80189E391E06D
:1019C0000E945F14892B19F481E491E0A2C2B8014E
:1019D00085E491E00E945F14892B49F580915303BF
:1019E00090915403E0915303F091540328E130E0C7
:1019F000B9010E9427149F938F93CF01B9010E94D0
:101A000027147F936F9380E99BE09F938F9382E7E6
:101A100093E09F938F930E94C11482E793E00E940A
:101A20000C140FB6F894DEBF0FBECDBFACC2B80128
:101A30008CE491E00E945F14892B39F0B80184E5B1
:101A400091E00E945F14892B79F48AE591E00E946D
:101A50000C1498E088E10FB6F894A8958093600084
:101A60000FBE90936000FFCFEA2CB80189E691E0A9
:101A70000E945F14892B81F4FF2059F08FEF8A0DAB
:101A8000823050F4C6010E94411461E00E945C0A59
:101A90004FC28091680335C2B80183E791E00E948C
:101AA0005F14892B81F4FF2059F08FEF8A0D82306B
:101AB00050F4C6010E94411461E00E94710A38C2CC
:101AC000809167031EC2B8018EE791E00E945F1407
:101AD000892B81F4FF2059F08FEF8A0D833050F469
:101AE000C6010E94411461E00E94FE0921C280915A
:101AF000650307C2B8018CE891E00E945F14892B4E
:101B000081F4FF2059F08FEF8A0D833050F4C60125
:101B10000E94411461E00E94110A0AC2809164038C
:101B2000F0C1B8018AE991E00E945F14892B81F429
:101B3000FF2059F08FEF8A0D823050F4C6010E94C9
:101B4000411461E00E94240AF3C180916303D9C16A
:101B5000B80188EA91E00E945F14892B79F4FF2094
:101B600051F0B1E0EB120AC0C6010E94411461E0DD
:101B70000E94370ADDC180916203C3C1B80183EBC3
:101B800091E00E945F14892B79F4FF2051F021E04D
:101B9000E2120AC0C6010E94411461E00E94490A93
:101BA000C7C180916603ADC1B80180EC91E00E948D
:101BB0005F14892B79F4FF2051F031E0E3120AC061
:101BC000C6010E94411461E00E94860AB1C1809161
:101BD000030197C1B8018EEC91E00E945F14892B3C
:101BE00079F4FF2051F041E0E4120AC0C6010E94DE
:101BF000411461E00E94990A9BC18091050181C155
:101C0000B80181EE91E00E945F14892B79F4FF20E6
:101C100051F051E0E5120AC0C6010E94411461E092
:101C20000E94AC0A85C1809104016BC1B80183EFA9
:101C300091E00E945F14892B79F4FF2051F081E03C
:101C4000E8120AC0C6010E94411461E00E94BF0A66
:101C50006FC18091710355C1B80187E092E00E9485
:101C60005F14892B81F4FF2059F08FEF8A0D8330A8
:101C700050F4C6010E94411461E00E94D40958C189
:101C800080915E033EC1B80185E192E00E945F143D
:101C9000892B81F4FF2059F08FEF8A0D833050F4A7
:101CA000C6010E94411461E00E94E90941C180918E
:101CB0005D0327C1B8018BE292E00E945F14892B7B
:101CC00029F4F11003C00E9467075DC1B80180E3E9
:101CD00092E00E945F14892BC9F4FF20B9F091E0D3
:101CE000E91214C0C6010E944114883008F04BC1AB
:101CF00021E030E0D90102C0AA0FBB1F8A95E2F7AC
:101D0000CD019091060161E0892B20C0B80181E4EA
:101D100092E00E945F14892BE1F4FF20D1F0B1E042
:101D2000EB1217C0C6010E944114883008F02BC185
:101D300021E030E0A90102C0440F551F8A95E2F767
:101D4000CA0180959091060161E089230E94C6092D
:101D5000EFC0B80181E592E00E945F14892B31F554
:101D6000F11024C000E010E04AE062E773E0C8012F
:101D70000E94721482E793E00E940C148091060185
:101D800090E0002E02C0959587950A94E2F780FFB7
:101D900003C08BE592E002C082E692E00E940C1440
:101DA0000F5F1F4F08301105F9F6EDC0B80188E646
:101DB00092E00E945F14892B99F5F11031C000E088
:101DC00010E0F02E4AE062E773E0C8010E9472144E
:101DD00082E793E00E940C148091060190E0002EAF
:101DE00002C0959587950A94E2F780FF03C085E7C6
:101DF00092E002C08CE792E00E940C148F2D0E94AA
:101E0000F806882319F083E892E002C087E892E0A0
:101E10000E940C140F5F1F4F0830110591F6B3C0DC
:101E2000B8018CE892E00E945F14892B59F4FF20DE
:101E300049F051E0E51206C0C6010E94411441E09C
:101E400061E011C0B80187E992E00E945F14892B1C
:101E500069F4FF2059F081E0E81208C0C6010E9431
:101E6000411441E060E00E94FC0662C0B80183EAD0
:101E700092E00E945F14892B39F4F11005C0809123
:101E80006003909161032BC0B80186EB92E00E9441
:101E90005F14892B39F4F11005C080916C03909187
:101EA0006D031DC0B8018CEC92E00E945F14892B79
:101EB00039F4F11005C080916A0390916B030FC053
:101EC000BE016E5D7F4F87EE92E00E945F14892B0A
:101ED00051F4F11008C080916E0390916F034AE0B5
:101EE00062E773E012C0BE016E5D7F4F8FEF92E03C
:101EF0000E945F14892B09F046C0F11044C0809104
:101F000070034AE062E773E090E00E94721482E797
:101F100093E00E940C1437C0203208F0F2CCA1E00C
:101F2000B0E0AC0FBD1FA20FB11D3C932F5FE9CCF9
:101F3000DF92CF921F930F9388E093E09F938F934C
:101F400082E793E09F938F930E949F1482E793E030
:101F50000E940C140FB6F894DEBF0FBECDBF1092D6
:101F60001003CE5BDF4F0FB6F894DEBF0FBECDBFC0
:101F7000DF91CF911F910F91FF90EF90DF90CF9065
:101F8000BF90AF9008958AE00E94F713E8CFCF93F7
:101F9000809110038230A1F1C1E00E94DC139C010A
:101FA000432F552747FD5A95452B39F5C09310030C
:101FB0008D3099F3E09112038A3089F482E08093A6
:101FC0001003E03438F4AE2FB0E0AD5EBC4F1C928D
:101FD000EF5FF7CF83E193E0CF910C94270CE034CF
:101FE00018F0CF910C941B0C91E09E0F909312036C
:101FF000F0E0ED5EFC4F8083D0CF2115314089F7B2
:10200000CF9108958DE090E00E94841760E00E94D7
:10201000C609559A569A579A209A219A229A239A33
:10202000249A6091060180E00E942B133A98399817
:102030003B98259A529A539A549AE8E6F0E08081A8
:1020400087608083ECE6F0E080818F6080831BBA3C
:102050000895E1E8F0E080818D6080831092800037
:1020600084E994E090938900809388001092850021
:1020700010928400EFE6F0E080818260808310920D
:102080006903089580911103811104C082E0809357
:10209000110307C0815080931103811102C00E9477
:1020A0001B0C80915703882359F08091570381506E
:1020B0008093570380915703811102C00E949F09AA
:1020C00080915B03882339F05A9A80915B03815099
:1020D00080935B0301C05A9880915A03882339F09A
:1020E0005B9A80915A03815080935A0301C05B9898
:1020F00080915903882339F05C9A8091590381506B
:102100008093590308955C98089580915C038460DE
:1021100080935C030895809153039091540301963A
:1021200090935403809353030895809155039091A5
:1021300056030196909356038093550395B180E220
:10214000892785B980917003833051F480916E03A3
:1021500090916F03019690936F0380936E0316C066
:1021600080917003823091F480916C0390916D03A3
:10217000019690936D0380936C0380916A03909114
:102180006B03019690936B0380936A0382E00E9435
:10219000F806882349F080916003909161030196CD
:1021A000909361038093600380910101882329F05B
:1021B0008091010181508093010180910001882369
:1021C00029F0809100018150809300018091550396
:1021D0009091560380915503909156036AE070E008
:1021E0000E942714892B11F40E94851080915503B9
:1021F00090915603809155039091560380319E40F3
:1022000030F00E948B1010925603109255030895DF
:1022100022E042E051E063E086E290E00E94C306E3
:102220008F3F29F080915C03816080935C0323E001
:1022300042E051E062E086E290E00E94C306811134
:1022400009C080910101811105C080915C03826009
:1022500080935C0324E042E051E061E086E290E09C
:102260000E94C306811109C080910001811105C03F
:1022700080915C03826080935C03089580915C038D
:1022800080FF33C080915C038E7F80935C0386B1B6
:1022900010926B0310926A0310926F0310926E03F8
:1022A0009FE090935B0392E09093010191E0909303
:1022B000000183FF07C08091020185FF56C00E9484
:1022C000940953C080915803811103C084E1809325
:1022D0005703809158038F5F809358038AE19AE0F7
:1022E0000E94181483E00E94540980915C0381FFCE
:1022F00023C080915C038D7F80935C0310926B03FD
:1023000010926A0310926F0310926E038FE0809315
:102310005A0380E09AE00E941814339B02C083E0C5
:1023200009C010926D0310926C0310926B0310920F
:102330006A0382E00E94540980915C0382FF0AC014
:1023400080915C038B7F80935C038FE080935903C3
:102350000E94480B80915C0383FF0AC080915C035C
:10236000877F80935C030C94860980E39AE0B8CF62
:1023700008951F920F920FB60F9211242F933F933F
:102380004F935F936F937F938F939F93AF93BF937D
:10239000EF93FF930E940811FF91EF91BF91AF91CE
:1023A0009F918F917F916F915F914F913F912F916D
:1023B0000F900FBE0F901F9018951F920F920FB69F
:1023C0000F9211242F933F934F935F936F937F93BB
:1023D0008F939F93AF93BF93EF93FF930E94B91195
:1023E000FF91EF91BF91AF919F918F917F916F91ED
:1023F0005F914F913F912F910F900FBE0F901F90C3
:1024000018951F920F920FB60F9211242F933F939E
:102410004F935F936F937F938F939F93AF93BF93EC
:10242000EF93FF930E94B911FF91EF91BF91AF918C
:102430009F918F917F916F915F914F913F912F91DC
:102440000F900FBE0F901F9018951F920F920FB60E
:102450000F9211242F933F934F935F936F937F932A
:102460008F939F93AF93BF93EF93FF930E9442107C
:10247000809169038F5F80936903809169038A303B
:1024800021F40E94951010926903FF91EF91BF9182
:10249000AF919F918F917F916F915F914F913F91FC
:1024A0002F910F900FBE0F901F9018950FB6F894B4
:1024B000A895809160008861809360001092600010
:1024C0000FBEF8940E94021086E290E00E94C313AF
:1024D0000E94D10A0E94F30A0E94160B0E94240B4C
:1024E0000E942B0B0E94400B0E94291080B780682D
:1024F00080BF83B7816083BF789480EF9BE00E94A8
:102500001814A8950E94C70F0E94F50B0E943E1157
:102510000E94910B8895F5CF0F931F93CF93DF9374
:102520001F92CDB7DEB7982FDB01082F10E00830DF
:102530001105C8F5F801EC5CFF4F0C943B1485E0E5
:1025400001C086E0898329E230E0EBE2F0E010C0D0
:1025500087E0F8CF198208C081E005C082E003C09F
:1025600083E001C084E0898323E230E0E5E2F0E02B
:102570009C931596FC93EE93149713963C932E938D
:102580001297898111968C93119721E030E0B9015F
:1025900002C0660F771F9A95E2F7CB018423169647
:1025A0008C9381E001C080E00F90DF91CF911F916B
:1025B0000F9108951F93CF93DF93CDB7DEB7279781
:1025C0000FB6F894DEBF0FBECDBF162FBE016F5FF2
:1025D0007F4F0E948C128823A1F1EB81FC81208126
:1025E00081E090E00A8002C0880F991F0A94E2F708
:1025F00028233F81332329F0113069F0111110C0D5
:1026000002C0113031F4ED81FE81908180958923E3
:1026100006C0111105C0ED81FE819081892B808358
:10262000EB81FC81308181E090E00A8002C0880F5C
:10263000991F0A94E2F7932F982381E0921301C027
:1026400080E027960FB6F894DEBF0FBECDBFDF91B6
:10265000CF911F9108951F93CF93DF93D82F162FFB
:10266000C0E0412F6D2F8C2F0E94DA12CF5FC8304F
:10267000C1F7DF91CF911F910895CF93DF93CDB72D
:10268000DEB727970FB6F894DEBF0FBECDBF462F3B
:10269000BE016F5F7F4F0E948C128823B1F0ED81E5
:1026A000FE81208181E090E00A8002C0880F991F9E
:1026B0000A94E2F7922F98238F81811105C081E05F
:1026C000992319F080E001C0892F27960FB6F8945E
:1026D000DEBF0FBECDBFDF91CF9108951F920F9245
:1026E0000FB60F9211242F938F939F93EF93FF9325
:1026F0008091C0009091C6008871E091B403EF5FB3
:10270000EF712091B303E21739F0E093B403F0E0E6
:10271000E954FC4F908301C082E08093B203FF91A3
:10272000EF919F918F912F910F900FBE0F901F905F
:1027300018951F920F920FB60F9211248F939F93AB
:10274000EF93FF939091B6038091B503981769F0CA
:10275000E091B503EF5FEF71E093B503F0E0E9526C
:10276000FC4F80818093C60005C08091C1008F7DA1
:102770008093C100FF91EF919F918F910F900FBEB9
:102780000F901F9018951092B6031092B5031092F7
:10279000B4031092B30397FF04C022E02093C0005B
:1027A0009F779093C5008093C40088E98093C1000F
:1027B00086E08093C20008959091B4038091B303A2
:1027C000981791F0E091B303EF5FEF71E093B303DB
:1027D000F0E0E954FC4F20818091B20390E0982F03
:1027E0008827820F911D089580E091E008959091CF
:1027F000B6039F5F9F712091B5039217E1F3E92F14
:10280000F0E0E952FC4F80839093B6038091C100C1
:1028100080628093C1000895CF93DF93EC0189918A
:10282000882319F00E94F713FACFDF91CF91089512
:10283000CF93DF93FC018491EF012196882321F04F
:102840000E94F713FE01F7CFDF91CF910895AA1BE5
:10285000BB1B51E107C0AA1FBB1FA617B70710F08B
:10286000A61BB70B881F991F5A95A9F780959095BD
:10287000BC01CD010895EE0FFF1F0590F491E02DEE
:102880000994FC0188279927E89421912032E9F3E3
:10289000293010F02E30C8F32B3241F02D3239F4AC
:1028A000689404C00E947D14820F911D21912053D1
:1028B0002A30C0F31EF4909581959F4F0895FB0137
:1028C000DC018D9181341CF08B350CF4805E6191BC
:1028D00061341CF06B350CF4605E861B611189F36A
:1028E000990B0895BB274A3031F4992322F4BDE2B5
:1028F000909581959F4F0C9486147AE0979F902D28
:10290000879F802D910D11240895BB27FB0155272A
:10291000AA27880F991FAA1FA41710F0A41B83953C
:102920005051B9F7A05DAA3308F0A95DA1930097B3
:1029300079F7B111B1931192CB010C94DA16AEE094
:10294000B0E0E5EAF4E10C94AC170D891E8986E04D
:102950008C831A8309838FEF9FE79E838D83AE015B
:10296000475E5F4F6F89788DCE0101960E94E31418
:10297000EF81F885E00FF11F10822E96E4E00C94B1
:10298000C817AEE0B0E0E7ECF4E10C94AC170D89A9
:102990001E898EE08C831A8309838FEF9FE79E83C5
:1029A0008D83AE01475E5F4F6F89788DCE010196B2
:1029B0000E94E314EF81F885E00FF11F10822E963C
:1029C000E4E00C94C817ABE0B0E0E9EEF4E10C945D
:1029D0009E176C017B018A01FC011782168283819C
:1029E00081FFCCC1CE0101963C01F6019381F70134
:1029F00093FD859193FF81917F01882309F4BAC1EA
:102A0000853239F493FD859193FF81917F01853261
:102A100029F4B60190E00E94EA16E7CF912C212C10
:102A2000312CFFE1F315D8F08B3279F038F4803295
:102A300079F08332A1F4232D20611DC08D3261F025
:102A4000803369F4232D216016C0832D8260382ED7
:102A5000E32DE4603E2E2AC0F32DF8601DC037FC44
:102A60002DC020ED280F2A3040F08E32B9F436FC0C
:102A700081C1232D2064322E19C036FE06C08AE0A3
:102A8000989E200D1124922E11C0EAE02E9E200D5A
:102A90001124222EF32DF0623F2E08C08C3621F433
:102AA000832D8068382E02C0883641F4F70193FDEB
:102AB000859193FF81917F018111B3CF982F9F7DE5
:102AC0009554933028F40C5F1F4F9FE399830DC0FA
:102AD000833631F0833771F0833509F059C021C056
:102AE000F801808189830E5F1F4F88248394912C85
:102AF000530113C02801F2E04F0E511CF801A080D1
:102B0000B18036FE03C0692D70E002C06FEF7FEF29
:102B1000C5010E94CF164C018201F32DFF773F2E95
:102B200016C0280122E0420E511CF801A080B1809D
:102B300036FE03C0692D70E002C06FEF7FEFC50164
:102B40000E94C4164C01F32DF0683F2E820133FC25
:102B50001BC0822D90E088169906B0F4B60180E281
:102B600090E00E94EA162A94F4CFF50137FC859193
:102B700037FE81915F01B60190E00E94EA162110B4
:102B80002A9421E0821A91088114910471F7E8C017
:102B9000843611F0893641F5F80137FE07C06081AF
:102BA0007181828193810C5F1F4F08C060817181A8
:102BB000072E000C880B990B0E5F1F4FF32DFF762D
:102BC0003F2E97FF09C090958095709561957F4F36
:102BD0008F4F9F4FF0683F2E2AE030E0A3010E9404
:102BE0002617882E861845C0853731F4232D2F7E71
:102BF000B22E2AE030E025C0932D997FB92E8F3672
:102C0000C1F018F4883579F0B5C0803719F08837ED
:102C100021F0B0C0E92FE061BE2EB4FE0DC0FB2D47
:102C2000F460BF2E09C034FE0AC0292F2660B22EE0
:102C300006C028E030E005C020E130E002C020E11D
:102C400032E0F801B7FE07C0608171818281938113
:102C50000C5F1F4F06C06081718180E090E00E5FC5
:102C60001F4FA3010E942617882E8618FB2DFF7781
:102C70003F2E36FE0DC0232D2E7FA22E891458F430
:102C800034FE0BC032FC09C0832D8E7EA82E05C0F9
:102C9000B82CA32C03C0B82C01C0B92CA4FE0FC0C3
:102CA000FE01E80DF11D8081803321F49A2D997E7B
:102CB000A92E09C0A2FE06C0B394B39404C08A2D05
:102CC000867809F0B394A3FC11C0A0FE06C0B2142C
:102CD00088F4280C922C9B180EC0B21460F4B60134
:102CE00080E290E00E94EA16B394F7CFB21418F491
:102CF0002B1802C0982C212CA4FE10C0B60180E332
:102D000090E00E94EA16A2FE17C0A1FC03C088E76B
:102D100090E002C088E590E0B6010CC08A2D86786C
:102D200059F0A1FE02C08BE201C080E2A7FC8DE257
:102D3000B60190E00E94EA16891438F4B60180E3E7
:102D400090E00E94EA169A94F7CF8A94F301E80D76
:102D5000F11D8081B60190E00E94EA168110F5CF46
:102D6000222009F442CEB60180E290E00E94EA16E9
:102D70002A94F6CFF6018681978102C08FEF9FEFEC
:102D80002B96E2E10C94BA17FC010590615070405B
:102D90000110D8F7809590958E0F9F1F0895FC0124
:102DA0006150704001900110D8F7809590958E0F7A
:102DB0009F1F0895DC01FC01672F71917723E1F7D4
:102DC000329704C07C916D9370836291AE17BF07F8
:102DD000C8F308950F931F93CF93DF93FB012381D3
:102DE00021FD03C08FEF9FEF2CC022FF16C046814C
:102DF0005781248135814217530744F4A081B18162
:102E00009D012F5F3F4F318320838C932681378133
:102E10002F5F3F4F3783268314C08B01EC01FB01EA
:102E20000084F185E02D0995892BE1F6D8011696ED
:102E30008D919C911797019617969C938E93169758
:102E4000CE01DF91CF911F910F910895FA01AA272A
:102E5000283051F1203181F1E8946F936E7F6E5FDD
:102E60007F4F8F4F9F4FAF4FB1E03ED0B4E03CD08B
:102E7000670F781F891F9A1FA11D680F791F8A1F6E
:102E8000911DA11D6A0F711D811D911DA11D20D0D5
:102E900009F468943F912AE0269F11243019305D8F
:102EA0003193DEF6CF010895462F4770405D419380
:102EB000B3E00FD0C9F7F6CF462F4F70405D4A33CD
:102EC00018F0495D31FD4052419302D0A9F7EACF95
:102ED000B4E0A6959795879577956795BA95C9F7C4
:102EE00000976105710508959B01AC010A2E0694B7
:102EF0005795479537952795BA95C9F7620F731F70
:102F0000841F951FA01D0895F999FECF92BD81BD24
:102F1000F89A992780B50895262FF999FECF92BD8A
:102F200081BDF89A019700B4021639F01FBA20BD8E
:102F30000FB6F894FA9AF99A0FBE08952F923F921D
:102F40004F925F926F927F928F929F92AF92BF92B9
:102F5000CF92DF92EF92FF920F931F93CF93DF9365
:102F6000CDB7DEB7CA1BDB0B0FB6F894DEBF0FBEC2
:102F7000CDBF09942A88398848885F846E847D840F
:102F80008C849B84AA84B984C884DF80EE80FD8011
:102F90000C811B81AA81B981CE0FD11D0FB6F89487
:0E2FA000DEBF0FBECDBFED010895F894FFCF48
:102FAE0001021B010101FF48454C5000424F4F5496
:102FBE004C4F41444552004C61756E636820626F00
:102FCE006F746C6F6164657220696E20313020738E
:102FDE0065636F6E647300480056455253494F4EF9
:102FEE0000312E3200555054494D45005245535430
:102FFE0041525400524553455400526573746172E8
:10300E0074696E672E2E2E0A00482D56454E542D8D
:10301E004F4E00482D56454E542D4F4646005645B0
:10302E004E542D4D41582D54494D450056454E5444
:10303E002D4D494E2D54494D450056454E542D4D5E
:10304E00494E2D54454D500056454E542D41465433
:10305E0045520056454E542D454E41424C45440076
:10306E004D555349432D454E41424C4544004C4924
:10307E004748542D4D41494E2D454E41424C4544F5
:10308E00004C494748542D5345432D454E41424C23
:10309E004544004C494748542D52454C41582D4506
:1030AE004E41424C454400494E562D574149542DF0
:1030BE0054494D4500534F4D45424F44592D494EAD
:1030CE002D574149542D54494D45005445535400F4
:1030DE005345542D484947482D50494E2D4C455681
:1030EE00005345542D4C4F572D50494E2D4C45569F
:1030FE000050494E2D4C4556454C002D48494748E9
:10310E000A002D4C4F570A004F55545055542D530D
:10311E0054415445002D4849474820002D204C4F1E
:10312E005720004F4E0A004F46460A005345542D75
:10313E0050494E2D4F4E005345542D50494E2D4F54
:10314E0046460056656E74576F726B696E67436FB5
:10315E00756E74657200536F6D65626F6479496E3A
:10316E0054696D65436F756E74657200536F6D654E
:10317E00626F6479496E576974686F75744D444314
:10318E006F756E746572004C617374416374697609
:10319E0069747954696D65436F756E74657200520A
:1031AE006F6F6D4D6F64650025733D25730A0000CA
:00000001FF
